{
  "contractName": "GradientToken",
  "abi": [
    {
      "constant": true,
      "inputs": [],
      "name": "name",
      "outputs": [
        {
          "name": "",
          "type": "string"
        }
      ],
      "payable": false,
      "stateMutability": "view",
      "type": "function"
    },
    {
      "constant": true,
      "inputs": [
        {
          "name": "_tokenId",
          "type": "uint256"
        }
      ],
      "name": "getApproved",
      "outputs": [
        {
          "name": "",
          "type": "address"
        }
      ],
      "payable": false,
      "stateMutability": "view",
      "type": "function"
    },
    {
      "constant": false,
      "inputs": [
        {
          "name": "_to",
          "type": "address"
        },
        {
          "name": "_tokenId",
          "type": "uint256"
        }
      ],
      "name": "approve",
      "outputs": [],
      "payable": false,
      "stateMutability": "nonpayable",
      "type": "function"
    },
    {
      "constant": true,
      "inputs": [],
      "name": "totalSupply",
      "outputs": [
        {
          "name": "",
          "type": "uint256"
        }
      ],
      "payable": false,
      "stateMutability": "view",
      "type": "function"
    },
    {
      "constant": false,
      "inputs": [
        {
          "name": "_from",
          "type": "address"
        },
        {
          "name": "_to",
          "type": "address"
        },
        {
          "name": "_tokenId",
          "type": "uint256"
        }
      ],
      "name": "transferFrom",
      "outputs": [],
      "payable": false,
      "stateMutability": "nonpayable",
      "type": "function"
    },
    {
      "constant": true,
      "inputs": [
        {
          "name": "_owner",
          "type": "address"
        },
        {
          "name": "_index",
          "type": "uint256"
        }
      ],
      "name": "tokenOfOwnerByIndex",
      "outputs": [
        {
          "name": "",
          "type": "uint256"
        }
      ],
      "payable": false,
      "stateMutability": "view",
      "type": "function"
    },
    {
      "constant": false,
      "inputs": [
        {
          "name": "_from",
          "type": "address"
        },
        {
          "name": "_to",
          "type": "address"
        },
        {
          "name": "_tokenId",
          "type": "uint256"
        }
      ],
      "name": "safeTransferFrom",
      "outputs": [],
      "payable": false,
      "stateMutability": "nonpayable",
      "type": "function"
    },
    {
      "constant": true,
      "inputs": [
        {
          "name": "_tokenId",
          "type": "uint256"
        }
      ],
      "name": "exists",
      "outputs": [
        {
          "name": "",
          "type": "bool"
        }
      ],
      "payable": false,
      "stateMutability": "view",
      "type": "function"
    },
    {
      "constant": true,
      "inputs": [
        {
          "name": "_index",
          "type": "uint256"
        }
      ],
      "name": "tokenByIndex",
      "outputs": [
        {
          "name": "",
          "type": "uint256"
        }
      ],
      "payable": false,
      "stateMutability": "view",
      "type": "function"
    },
    {
      "constant": true,
      "inputs": [
        {
          "name": "_tokenId",
          "type": "uint256"
        }
      ],
      "name": "ownerOf",
      "outputs": [
        {
          "name": "",
          "type": "address"
        }
      ],
      "payable": false,
      "stateMutability": "view",
      "type": "function"
    },
    {
      "constant": true,
      "inputs": [
        {
          "name": "_owner",
          "type": "address"
        }
      ],
      "name": "balanceOf",
      "outputs": [
        {
          "name": "",
          "type": "uint256"
        }
      ],
      "payable": false,
      "stateMutability": "view",
      "type": "function"
    },
    {
      "constant": false,
      "inputs": [],
      "name": "renounceOwnership",
      "outputs": [],
      "payable": false,
      "stateMutability": "nonpayable",
      "type": "function"
    },
    {
      "constant": true,
      "inputs": [],
      "name": "owner",
      "outputs": [
        {
          "name": "",
          "type": "address"
        }
      ],
      "payable": false,
      "stateMutability": "view",
      "type": "function"
    },
    {
      "constant": true,
      "inputs": [],
      "name": "symbol",
      "outputs": [
        {
          "name": "",
          "type": "string"
        }
      ],
      "payable": false,
      "stateMutability": "view",
      "type": "function"
    },
    {
      "constant": false,
      "inputs": [
        {
          "name": "_to",
          "type": "address"
        },
        {
          "name": "_approved",
          "type": "bool"
        }
      ],
      "name": "setApprovalForAll",
      "outputs": [],
      "payable": false,
      "stateMutability": "nonpayable",
      "type": "function"
    },
    {
      "constant": false,
      "inputs": [
        {
          "name": "_from",
          "type": "address"
        },
        {
          "name": "_to",
          "type": "address"
        },
        {
          "name": "_tokenId",
          "type": "uint256"
        },
        {
          "name": "_data",
          "type": "bytes"
        }
      ],
      "name": "safeTransferFrom",
      "outputs": [],
      "payable": false,
      "stateMutability": "nonpayable",
      "type": "function"
    },
    {
      "constant": true,
      "inputs": [
        {
          "name": "_tokenId",
          "type": "uint256"
        }
      ],
      "name": "tokenURI",
      "outputs": [
        {
          "name": "",
          "type": "string"
        }
      ],
      "payable": false,
      "stateMutability": "view",
      "type": "function"
    },
    {
      "constant": true,
      "inputs": [
        {
          "name": "_owner",
          "type": "address"
        },
        {
          "name": "_operator",
          "type": "address"
        }
      ],
      "name": "isApprovedForAll",
      "outputs": [
        {
          "name": "",
          "type": "bool"
        }
      ],
      "payable": false,
      "stateMutability": "view",
      "type": "function"
    },
    {
      "constant": false,
      "inputs": [
        {
          "name": "_newOwner",
          "type": "address"
        }
      ],
      "name": "transferOwnership",
      "outputs": [],
      "payable": false,
      "stateMutability": "nonpayable",
      "type": "function"
    },
    {
      "anonymous": false,
      "inputs": [
        {
          "indexed": true,
          "name": "previousOwner",
          "type": "address"
        }
      ],
      "name": "OwnershipRenounced",
      "type": "event"
    },
    {
      "anonymous": false,
      "inputs": [
        {
          "indexed": true,
          "name": "previousOwner",
          "type": "address"
        },
        {
          "indexed": true,
          "name": "newOwner",
          "type": "address"
        }
      ],
      "name": "OwnershipTransferred",
      "type": "event"
    },
    {
      "anonymous": false,
      "inputs": [
        {
          "indexed": true,
          "name": "_from",
          "type": "address"
        },
        {
          "indexed": true,
          "name": "_to",
          "type": "address"
        },
        {
          "indexed": false,
          "name": "_tokenId",
          "type": "uint256"
        }
      ],
      "name": "Transfer",
      "type": "event"
    },
    {
      "anonymous": false,
      "inputs": [
        {
          "indexed": true,
          "name": "_owner",
          "type": "address"
        },
        {
          "indexed": true,
          "name": "_approved",
          "type": "address"
        },
        {
          "indexed": false,
          "name": "_tokenId",
          "type": "uint256"
        }
      ],
      "name": "Approval",
      "type": "event"
    },
    {
      "anonymous": false,
      "inputs": [
        {
          "indexed": true,
          "name": "_owner",
          "type": "address"
        },
        {
          "indexed": true,
          "name": "_operator",
          "type": "address"
        },
        {
          "indexed": false,
          "name": "_approved",
          "type": "bool"
        }
      ],
      "name": "ApprovalForAll",
      "type": "event"
    },
    {
      "constant": false,
      "inputs": [
        {
          "name": "_outer",
          "type": "string"
        },
        {
          "name": "_inner",
          "type": "string"
        }
      ],
      "name": "mint",
      "outputs": [],
      "payable": false,
      "stateMutability": "nonpayable",
      "type": "function"
    },
    {
      "constant": true,
      "inputs": [
        {
          "name": "_gradientId",
          "type": "uint256"
        }
      ],
      "name": "getGradient",
      "outputs": [
        {
          "name": "outer",
          "type": "string"
        },
        {
          "name": "inner",
          "type": "string"
        }
      ],
      "payable": false,
      "stateMutability": "view",
      "type": "function"
    }
  ],
  "bytecode": "0x600d60808181527f4772616469656e74546f6b656e0000000000000000000000000000000000000060a0908152610100604052600460c08181527f475241440000000000000000000000000000000000000000000000000000000060e05292936200006b92906200009c565b508051620000819060059060208401906200009c565b5050600b8054600160a060020a031916331790555062000141565b828054600181600116156101000203166002900490600052602060002090601f016020900481019282601f10620000df57805160ff19168380011785556200010f565b828001600101855582156200010f579182015b828111156200010f578251825591602001919060010190620000f2565b506200011d92915062000121565b5090565b6200013e91905b808211156200011d576000815560010162000128565b90565b6115d080620001516000396000f30060806040526004361061011c5763ffffffff7c010000000000000000000000000000000000000000000000000000000060003504166306fdde038114610121578063081812fc146101ab578063095ea7b3146101df57806318160ddd1461020557806323b872dd1461022c5780632f745c591461025657806342842e0e1461027a5780634f558e79146102a45780634f6ccce7146102d05780636352211e146102e857806370a0823114610300578063715018a6146103215780638aa0fdad146103365780638da5cb5b146103cd57806395d89b41146103e2578063a22cb465146103f7578063b88d4fde1461041d578063c87b56dd1461048c578063d927f09e146104a4578063e985e9c51461059a578063f2fde38b146105c1575b600080fd5b34801561012d57600080fd5b506101366105e2565b6040805160208082528351818301528351919283929083019185019080838360005b83811015610170578181015183820152602001610158565b50505050905090810190601f16801561019d5780820380516001836020036101000a031916815260200191505b509250505060405180910390f35b3480156101b757600080fd5b506101c3600435610679565b60408051600160a060020a039092168252519081900360200190f35b3480156101eb57600080fd5b50610203600160a060020a0360043516602435610694565b005b34801561021157600080fd5b5061021a610786565b60408051918252519081900360200190f35b34801561023857600080fd5b50610203600160a060020a036004358116906024351660443561078c565b34801561026257600080fd5b5061021a600160a060020a036004351660243561083b565b34801561028657600080fd5b50610203600160a060020a0360043581169060243516604435610888565b3480156102b057600080fd5b506102bc6004356108c0565b604080519115158252519081900360200190f35b3480156102dc57600080fd5b5061021a6004356108dd565b3480156102f457600080fd5b506101c3600435610912565b34801561030c57600080fd5b5061021a600160a060020a036004351661093c565b34801561032d57600080fd5b5061020361096f565b34801561034257600080fd5b506040805160206004803580820135601f810184900484028501840190955284845261020394369492936024939284019190819084018382808284375050604080516020601f89358b018035918201839004830284018301909452808352979a9998810197919650918201945092508291508401838280828437509497506109dd9650505050505050565b3480156103d957600080fd5b506101c3610a91565b3480156103ee57600080fd5b50610136610aa0565b34801561040357600080fd5b50610203600160a060020a03600435166024351515610b01565b34801561042957600080fd5b50604080516020601f60643560048181013592830184900484028501840190955281845261020394600160a060020a038135811695602480359092169560443595369560849401918190840183828082843750949750610b859650505050505050565b34801561049857600080fd5b50610136600435610bc4565b3480156104b057600080fd5b506104bc600435610c79565b604051808060200180602001838103835285818151815260200191508051906020019080838360005b838110156104fd5781810151838201526020016104e5565b50505050905090810190601f16801561052a5780820380516001836020036101000a031916815260200191505b50838103825284518152845160209182019186019080838360005b8381101561055d578181015183820152602001610545565b50505050905090810190601f16801561058a5780820380516001836020036101000a031916815260200191505b5094505050505060405180910390f35b3480156105a657600080fd5b506102bc600160a060020a0360043581169060243516610df0565b3480156105cd57600080fd5b50610203600160a060020a0360043516610e1e565b60048054604080516020601f600260001961010060018816150201909516949094049384018190048102820181019092528281526060939092909183018282801561066e5780601f106106435761010080835404028352916020019161066e565b820191906000526020600020905b81548152906001019060200180831161065157829003601f168201915b505050505090505b90565b600090815260016020526040902054600160a060020a031690565b600061069f82610912565b9050600160a060020a0383811690821614156106ba57600080fd5b33600160a060020a03821614806106d657506106d68133610df0565b15156106e157600080fd5b60006106ec83610679565b600160a060020a031614158061070a5750600160a060020a03831615155b1561078157600082815260016020908152604091829020805473ffffffffffffffffffffffffffffffffffffffff1916600160a060020a03878116918217909255835186815293519093918516927f8c5be1e5ebec7d5bd14f71427d1e84f3dd0314c0f7b2291e5b200ac8c7c3b925928290030190a35b505050565b60085490565b806107973382610e41565b15156107a257600080fd5b600160a060020a03841615156107b757600080fd5b600160a060020a03831615156107cc57600080fd5b6107d68483610ea0565b6107e08483610f4e565b6107ea8383611087565b82600160a060020a031684600160a060020a03167fddf252ad1be2c89b69c2b068fc378daa952ba7f163c4a11628f55a4df523b3ef846040518082815260200191505060405180910390a350505050565b60006108468361093c565b821061085157600080fd5b600160a060020a038316600090815260066020526040902080548390811061087557fe5b9060005260206000200154905092915050565b806108933382610e41565b151561089e57600080fd5b6108ba8484846020604051908101604052806000815250610b85565b50505050565b600090815260208190526040902054600160a060020a0316151590565b60006108e7610786565b82106108f257600080fd5b600880548390811061090057fe5b90600052602060002001549050919050565b600081815260208190526040812054600160a060020a031680151561093657600080fd5b92915050565b6000600160a060020a038216151561095357600080fd5b50600160a060020a031660009081526002602052604090205490565b600b54600160a060020a0316331461098657600080fd5b600b54604051600160a060020a03909116907ff8df31144d9c2f0f6b59d69b8b98abd5459d07f2742c4df920b25aae33c6482090600090a2600b805473ffffffffffffffffffffffffffffffffffffffff19169055565b6109e56114d5565b600b54600090600160a060020a031633146109ff57600080fd5b604080518082019091528481526020808201859052600c805460018181018084556000939093528451805195975090949293879360029093027fdf6966c971051c3d54ec59162606531493a51404a002842f56009d7e5cf4a8c70192610a6892849201906114ec565b506020828101518051610a8192600185019201906114ec565b5050500390506108ba33826110d0565b600b54600160a060020a031681565b60058054604080516020601f600260001961010060018816150201909516949094049384018190048102820181019092528281526060939092909183018282801561066e5780601f106106435761010080835404028352916020019161066e565b600160a060020a038216331415610b1757600080fd5b336000818152600360209081526040808320600160a060020a03871680855290835292819020805460ff1916861515908117909155815190815290519293927f17307eab39ab6107e8899845ad3d59bd9653f200f220920489ca2b5937696c31929181900390910190a35050565b81610b903382610e41565b1515610b9b57600080fd5b610ba685858561078c565b610bb28585858561111f565b1515610bbd57600080fd5b5050505050565b6060610bcf826108c0565b1515610bda57600080fd5b6000828152600a602090815260409182902080548351601f600260001961010060018616150201909316929092049182018490048402810184019094528084529091830182828015610c6d5780601f10610c4257610100808354040283529160200191610c6d565b820191906000526020600020905b815481529060010190602001808311610c5057829003601f168201915b50505050509050919050565b606080610c846114d5565b600c805485908110610c9257fe5b60009182526020918290206040805160029384029092018054600181161561010002600019011693909304601f81018590049094028201606090810182529082018481529193849291849190840182828015610d2f5780601f10610d0457610100808354040283529160200191610d2f565b820191906000526020600020905b815481529060010190602001808311610d1257829003601f168201915b50505050508152602001600182018054600181600116156101000203166002900480601f016020809104026020016040519081016040528092919081815260200182805460018160011615610100020316600290048015610dd15780601f10610da657610100808354040283529160200191610dd1565b820191906000526020600020905b815481529060010190602001808311610db457829003601f168201915b5050505050815250509050806000015192508060200151915050915091565b600160a060020a03918216600090815260036020908152604080832093909416825291909152205460ff1690565b600b54600160a060020a03163314610e3557600080fd5b610e3e816112a8565b50565b600080610e4d83610912565b905080600160a060020a031684600160a060020a03161480610e88575083600160a060020a0316610e7d84610679565b600160a060020a0316145b80610e985750610e988185610df0565b949350505050565b81600160a060020a0316610eb382610912565b600160a060020a031614610ec657600080fd5b600081815260016020526040902054600160a060020a031615610f4a576000818152600160209081526040808320805473ffffffffffffffffffffffffffffffffffffffff1916905580518481529051600160a060020a038616927f8c5be1e5ebec7d5bd14f71427d1e84f3dd0314c0f7b2291e5b200ac8c7c3b925928290030190a35b5050565b6000806000610f5d8585611326565b600084815260076020908152604080832054600160a060020a0389168452600690925290912054909350610f9890600163ffffffff6113bb16565b600160a060020a038616600090815260066020526040902080549193509083908110610fc057fe5b90600052602060002001549050806006600087600160a060020a0316600160a060020a031681526020019081526020016000208481548110151561100057fe5b6000918252602080832090910192909255600160a060020a038716815260069091526040812080548490811061103257fe5b6000918252602080832090910192909255600160a060020a038716815260069091526040902080549061106990600019830161156a565b50600093845260076020526040808520859055908452909220555050565b600061109383836113cd565b50600160a060020a039091166000908152600660209081526040808320805460018101825590845282842081018590559383526007909152902055565b6110da828261145c565b600880546000838152600960205260408120829055600182018355919091527ff3f7a9fe364faab93b216da50a3214154f22a0a2b415b23a84c8169e8b636ee3015550565b60008061113485600160a060020a03166114c0565b1515611143576001915061129f565b84600160a060020a031663f0b9e5ba8786866040518463ffffffff167c01000000000000000000000000000000000000000000000000000000000281526004018084600160a060020a0316600160a060020a0316815260200183815260200180602001828103825283818151815260200191508051906020019080838360005b838110156111db5781810151838201526020016111c3565b50505050905090810190601f1680156112085780820380516001836020036101000a031916815260200191505b50945050505050602060405180830381600087803b15801561122957600080fd5b505af115801561123d573d6000803e3d6000fd5b505050506040513d602081101561125357600080fd5b50517fffffffff0000000000000000000000000000000000000000000000000000000081167ff0b9e5ba0000000000000000000000000000000000000000000000000000000014925090505b50949350505050565b600160a060020a03811615156112bd57600080fd5b600b54604051600160a060020a038084169216907f8be0079c531659141344cd1fd0a4f28419497f9722a3daafe3b4186f6b6457e090600090a3600b805473ffffffffffffffffffffffffffffffffffffffff1916600160a060020a0392909216919091179055565b81600160a060020a031661133982610912565b600160a060020a03161461134c57600080fd5b600160a060020a03821660009081526002602052604090205461137690600163ffffffff6113bb16565b600160a060020a039092166000908152600260209081526040808320949094559181529081905220805473ffffffffffffffffffffffffffffffffffffffff19169055565b6000828211156113c757fe5b50900390565b600081815260208190526040902054600160a060020a0316156113ef57600080fd5b600081815260208181526040808320805473ffffffffffffffffffffffffffffffffffffffff1916600160a060020a0387169081179091558352600290915290205461143c9060016114c8565b600160a060020a0390921660009081526002602052604090209190915550565b600160a060020a038216151561147157600080fd5b61147b8282611087565b604080518281529051600160a060020a038416916000917fddf252ad1be2c89b69c2b068fc378daa952ba7f163c4a11628f55a4df523b3ef9181900360200190a35050565b6000903b1190565b8181018281101561093657fe5b604080518082019091526060808252602082015290565b828054600181600116156101000203166002900490600052602060002090601f016020900481019282601f1061152d57805160ff191683800117855561155a565b8280016001018555821561155a579182015b8281111561155a57825182559160200191906001019061153f565b5061156692915061158a565b5090565b815481835581811115610781576000838152602090206107819181019083015b61067691905b8082111561156657600081556001016115905600a165627a7a72305820563fddef2e4cee86e051eb727e38a977a57d64c58711aeea5ecec5883d7460d70029",
  "source": "pragma solidity ^0.4.24;\n\nimport 'openzeppelin-solidity/contracts/token/ERC721/ERC721Token.sol';\nimport 'openzeppelin-solidity/contracts/ownership/Ownable.sol';\n\ncontract GradientToken is ERC721Token(\"GradientToken\", \"GRAD\"), Ownable {\n  // string private constant _name = \"GradientToken\";\n  // string private constant _symbol = \"GRAD\";\n\n  struct Gradient {\n    string outer;\n    string inner;\n  }\n\n  Gradient[] gradients;\n\n  function mint(string _outer, string _inner) public onlyOwner{\n    Gradient memory _gradient = Gradient({ outer: _outer, inner: _inner });\n    uint _gradientId = gradients.push(_gradient) - 1;\n  \n    _mint(msg.sender, _gradientId);\n  }\n\n  function getGradient( uint _gradientId ) public view returns(string outer, string inner){\n    Gradient memory _grad = gradients[_gradientId];\n  \n    outer = _grad.outer;\n    inner = _grad.inner;\n  }\n}\n",
  "sourcePath": "/Users/jheinnic/Git/throwdown-proxy/solidity/contracts/GradientToken.sol",
  "compiler": {
    "name": "solc",
    "version": "0.4.24+commit.e67f0147.Emscripten.clang"
  },
  "schemaVersion": "2.0.1",
  "updatedAt": "2018-06-28T23:54:05.350Z"
}