{
  "contractName": "GradientToken",
  "abi": [
    {
      "constant": true,
      "inputs": [],
      "name": "name",
      "outputs": [
        {
          "name": "",
          "type": "string"
        }
      ],
      "payable": false,
      "stateMutability": "view",
      "type": "function"
    },
    {
      "constant": true,
      "inputs": [
        {
          "name": "_tokenId",
          "type": "uint256"
        }
      ],
      "name": "getApproved",
      "outputs": [
        {
          "name": "",
          "type": "address"
        }
      ],
      "payable": false,
      "stateMutability": "view",
      "type": "function"
    },
    {
      "constant": false,
      "inputs": [
        {
          "name": "_to",
          "type": "address"
        },
        {
          "name": "_tokenId",
          "type": "uint256"
        }
      ],
      "name": "approve",
      "outputs": [],
      "payable": false,
      "stateMutability": "nonpayable",
      "type": "function"
    },
    {
      "constant": true,
      "inputs": [],
      "name": "totalSupply",
      "outputs": [
        {
          "name": "",
          "type": "uint256"
        }
      ],
      "payable": false,
      "stateMutability": "view",
      "type": "function"
    },
    {
      "constant": false,
      "inputs": [
        {
          "name": "_from",
          "type": "address"
        },
        {
          "name": "_to",
          "type": "address"
        },
        {
          "name": "_tokenId",
          "type": "uint256"
        }
      ],
      "name": "transferFrom",
      "outputs": [],
      "payable": false,
      "stateMutability": "nonpayable",
      "type": "function"
    },
    {
      "constant": true,
      "inputs": [
        {
          "name": "_owner",
          "type": "address"
        },
        {
          "name": "_index",
          "type": "uint256"
        }
      ],
      "name": "tokenOfOwnerByIndex",
      "outputs": [
        {
          "name": "",
          "type": "uint256"
        }
      ],
      "payable": false,
      "stateMutability": "view",
      "type": "function"
    },
    {
      "constant": false,
      "inputs": [
        {
          "name": "_from",
          "type": "address"
        },
        {
          "name": "_to",
          "type": "address"
        },
        {
          "name": "_tokenId",
          "type": "uint256"
        }
      ],
      "name": "safeTransferFrom",
      "outputs": [],
      "payable": false,
      "stateMutability": "nonpayable",
      "type": "function"
    },
    {
      "constant": true,
      "inputs": [
        {
          "name": "_tokenId",
          "type": "uint256"
        }
      ],
      "name": "exists",
      "outputs": [
        {
          "name": "",
          "type": "bool"
        }
      ],
      "payable": false,
      "stateMutability": "view",
      "type": "function"
    },
    {
      "constant": true,
      "inputs": [
        {
          "name": "_index",
          "type": "uint256"
        }
      ],
      "name": "tokenByIndex",
      "outputs": [
        {
          "name": "",
          "type": "uint256"
        }
      ],
      "payable": false,
      "stateMutability": "view",
      "type": "function"
    },
    {
      "constant": true,
      "inputs": [
        {
          "name": "_tokenId",
          "type": "uint256"
        }
      ],
      "name": "ownerOf",
      "outputs": [
        {
          "name": "",
          "type": "address"
        }
      ],
      "payable": false,
      "stateMutability": "view",
      "type": "function"
    },
    {
      "constant": true,
      "inputs": [
        {
          "name": "_owner",
          "type": "address"
        }
      ],
      "name": "balanceOf",
      "outputs": [
        {
          "name": "",
          "type": "uint256"
        }
      ],
      "payable": false,
      "stateMutability": "view",
      "type": "function"
    },
    {
      "constant": true,
      "inputs": [],
      "name": "owner",
      "outputs": [
        {
          "name": "",
          "type": "address"
        }
      ],
      "payable": false,
      "stateMutability": "view",
      "type": "function"
    },
    {
      "constant": true,
      "inputs": [],
      "name": "symbol",
      "outputs": [
        {
          "name": "",
          "type": "string"
        }
      ],
      "payable": false,
      "stateMutability": "view",
      "type": "function"
    },
    {
      "constant": false,
      "inputs": [
        {
          "name": "_to",
          "type": "address"
        },
        {
          "name": "_approved",
          "type": "bool"
        }
      ],
      "name": "setApprovalForAll",
      "outputs": [],
      "payable": false,
      "stateMutability": "nonpayable",
      "type": "function"
    },
    {
      "constant": false,
      "inputs": [
        {
          "name": "_from",
          "type": "address"
        },
        {
          "name": "_to",
          "type": "address"
        },
        {
          "name": "_tokenId",
          "type": "uint256"
        },
        {
          "name": "_data",
          "type": "bytes"
        }
      ],
      "name": "safeTransferFrom",
      "outputs": [],
      "payable": false,
      "stateMutability": "nonpayable",
      "type": "function"
    },
    {
      "constant": true,
      "inputs": [
        {
          "name": "_tokenId",
          "type": "uint256"
        }
      ],
      "name": "tokenURI",
      "outputs": [
        {
          "name": "",
          "type": "string"
        }
      ],
      "payable": false,
      "stateMutability": "view",
      "type": "function"
    },
    {
      "constant": true,
      "inputs": [
        {
          "name": "_owner",
          "type": "address"
        },
        {
          "name": "_operator",
          "type": "address"
        }
      ],
      "name": "isApprovedForAll",
      "outputs": [
        {
          "name": "",
          "type": "bool"
        }
      ],
      "payable": false,
      "stateMutability": "view",
      "type": "function"
    },
    {
      "constant": false,
      "inputs": [
        {
          "name": "newOwner",
          "type": "address"
        }
      ],
      "name": "transferOwnership",
      "outputs": [],
      "payable": false,
      "stateMutability": "nonpayable",
      "type": "function"
    },
    {
      "anonymous": false,
      "inputs": [
        {
          "indexed": true,
          "name": "previousOwner",
          "type": "address"
        },
        {
          "indexed": true,
          "name": "newOwner",
          "type": "address"
        }
      ],
      "name": "OwnershipTransferred",
      "type": "event"
    },
    {
      "anonymous": false,
      "inputs": [
        {
          "indexed": true,
          "name": "_from",
          "type": "address"
        },
        {
          "indexed": true,
          "name": "_to",
          "type": "address"
        },
        {
          "indexed": false,
          "name": "_tokenId",
          "type": "uint256"
        }
      ],
      "name": "Transfer",
      "type": "event"
    },
    {
      "anonymous": false,
      "inputs": [
        {
          "indexed": true,
          "name": "_owner",
          "type": "address"
        },
        {
          "indexed": true,
          "name": "_approved",
          "type": "address"
        },
        {
          "indexed": false,
          "name": "_tokenId",
          "type": "uint256"
        }
      ],
      "name": "Approval",
      "type": "event"
    },
    {
      "anonymous": false,
      "inputs": [
        {
          "indexed": true,
          "name": "_owner",
          "type": "address"
        },
        {
          "indexed": true,
          "name": "_operator",
          "type": "address"
        },
        {
          "indexed": false,
          "name": "_approved",
          "type": "bool"
        }
      ],
      "name": "ApprovalForAll",
      "type": "event"
    },
    {
      "constant": false,
      "inputs": [
        {
          "name": "_outer",
          "type": "string"
        },
        {
          "name": "_inner",
          "type": "string"
        }
      ],
      "name": "mint",
      "outputs": [],
      "payable": false,
      "stateMutability": "nonpayable",
      "type": "function"
    },
    {
      "constant": true,
      "inputs": [
        {
          "name": "_gradientId",
          "type": "uint256"
        }
      ],
      "name": "getGradient",
      "outputs": [
        {
          "name": "outer",
          "type": "string"
        },
        {
          "name": "inner",
          "type": "string"
        }
      ],
      "payable": false,
      "stateMutability": "view",
      "type": "function"
    }
  ],
  "bytecode": "0x600d60808181527f4772616469656e74546f6b656e0000000000000000000000000000000000000060a0908152610100604052600460c08181527f475241440000000000000000000000000000000000000000000000000000000060e05292936200006b9290620000a5565b50805162000081906005906020840190620000a5565b5050600b8054600160a060020a03191633600160a060020a0316179055506200014a565b828054600181600116156101000203166002900490600052602060002090601f016020900481019282601f10620000e857805160ff191683800117855562000118565b8280016001018555821562000118579182015b8281111562000118578251825591602001919060010190620000fb565b50620001269291506200012a565b5090565b6200014791905b8082111562000126576000815560010162000131565b90565b611552806200015a6000396000f3006080604052600436106101115763ffffffff7c010000000000000000000000000000000000000000000000000000000060003504166306fdde038114610116578063081812fc146101a0578063095ea7b3146101d457806318160ddd146101fa57806323b872dd146102215780632f745c591461024b57806342842e0e1461026f5780634f558e79146102995780634f6ccce7146102c55780636352211e146102dd57806370a08231146102f55780638aa0fdad146103165780638da5cb5b146103ad57806395d89b41146103c2578063a22cb465146103d7578063b88d4fde146103fd578063c87b56dd1461046c578063d927f09e14610484578063e985e9c51461057a578063f2fde38b146105a1575b600080fd5b34801561012257600080fd5b5061012b6105c2565b6040805160208082528351818301528351919283929083019185019080838360005b8381101561016557818101518382015260200161014d565b50505050905090810190601f1680156101925780820380516001836020036101000a031916815260200191505b509250505060405180910390f35b3480156101ac57600080fd5b506101b8600435610659565b60408051600160a060020a039092168252519081900360200190f35b3480156101e057600080fd5b506101f8600160a060020a0360043516602435610674565b005b34801561020657600080fd5b5061020f61076f565b60408051918252519081900360200190f35b34801561022d57600080fd5b506101f8600160a060020a0360043581169060243516604435610775565b34801561025757600080fd5b5061020f600160a060020a0360043516602435610824565b34801561027b57600080fd5b506101f8600160a060020a0360043581169060243516604435610871565b3480156102a557600080fd5b506102b16004356108a9565b604080519115158252519081900360200190f35b3480156102d157600080fd5b5061020f6004356108c6565b3480156102e957600080fd5b506101b86004356108fb565b34801561030157600080fd5b5061020f600160a060020a0360043516610925565b34801561032257600080fd5b506040805160206004803580820135601f81018490048402850184019095528484526101f894369492936024939284019190819084018382808284375050604080516020601f89358b018035918201839004830284018301909452808352979a9998810197919650918201945092508291508401838280828437509497506109589650505050505050565b3480156103b957600080fd5b506101b8610a10565b3480156103ce57600080fd5b5061012b610a1f565b3480156103e357600080fd5b506101f8600160a060020a03600435166024351515610a80565b34801561040957600080fd5b50604080516020601f6064356004818101359283018490048402850184019095528184526101f894600160a060020a038135811695602480359092169560443595369560849401918190840183828082843750949750610b0f9650505050505050565b34801561047857600080fd5b5061012b600435610b4e565b34801561049057600080fd5b5061049c600435610c03565b604051808060200180602001838103835285818151815260200191508051906020019080838360005b838110156104dd5781810151838201526020016104c5565b50505050905090810190601f16801561050a5780820380516001836020036101000a031916815260200191505b50838103825284518152845160209182019186019080838360005b8381101561053d578181015183820152602001610525565b50505050905090810190601f16801561056a5780820380516001836020036101000a031916815260200191505b5094505050505060405180910390f35b34801561058657600080fd5b506102b1600160a060020a0360043581169060243516610d7a565b3480156105ad57600080fd5b506101f8600160a060020a0360043516610da8565b60048054604080516020601f600260001961010060018816150201909516949094049384018190048102820181019092528281526060939092909183018282801561064e5780601f106106235761010080835404028352916020019161064e565b820191906000526020600020905b81548152906001019060200180831161063157829003601f168201915b505050505090505b90565b600090815260016020526040902054600160a060020a031690565b600061067f826108fb565b9050600160a060020a03838116908216141561069a57600080fd5b80600160a060020a031633600160a060020a031614806106bf57506106bf8133610d7a565b15156106ca57600080fd5b60006106d583610659565b600160a060020a03161415806106f35750600160a060020a03831615155b1561076a57600082815260016020908152604091829020805473ffffffffffffffffffffffffffffffffffffffff1916600160a060020a03878116918217909255835186815293519093918516927f8c5be1e5ebec7d5bd14f71427d1e84f3dd0314c0f7b2291e5b200ac8c7c3b925928290030190a35b505050565b60085490565b806107803382610e41565b151561078b57600080fd5b600160a060020a03841615156107a057600080fd5b600160a060020a03831615156107b557600080fd5b6107bf8483610ea0565b6107c98483610f4e565b6107d38383611087565b82600160a060020a031684600160a060020a03167fddf252ad1be2c89b69c2b068fc378daa952ba7f163c4a11628f55a4df523b3ef846040518082815260200191505060405180910390a350505050565b600061082f83610925565b821061083a57600080fd5b600160a060020a038316600090815260066020526040902080548390811061085e57fe5b9060005260206000200154905092915050565b8061087c3382610e41565b151561088757600080fd5b6108a38484846020604051908101604052806000815250610b0f565b50505050565b600090815260208190526040902054600160a060020a0316151590565b60006108d061076f565b82106108db57600080fd5b60088054839081106108e957fe5b90600052602060002001549050919050565b600081815260208190526040812054600160a060020a031680151561091f57600080fd5b92915050565b6000600160a060020a038216151561093c57600080fd5b50600160a060020a031660009081526002602052604090205490565b610960611457565b600b5460009033600160a060020a0390811691161461097e57600080fd5b604080518082019091528481526020808201859052600c805460018181018084556000939093528451805195975090949293879360029093027fdf6966c971051c3d54ec59162606531493a51404a002842f56009d7e5cf4a8c701926109e7928492019061146e565b506020828101518051610a00926001850192019061146e565b5050500390506108a333826110d0565b600b54600160a060020a031681565b60058054604080516020601f600260001961010060018816150201909516949094049384018190048102820181019092528281526060939092909183018282801561064e5780601f106106235761010080835404028352916020019161064e565b33600160a060020a031682600160a060020a031614151515610aa157600080fd5b600160a060020a03338116600081815260036020908152604080832094871680845294825291829020805486151560ff199091168117909155825190815291517f17307eab39ab6107e8899845ad3d59bd9653f200f220920489ca2b5937696c319281900390910190a35050565b81610b1a3382610e41565b1515610b2557600080fd5b610b30858585610775565b610b3c8585858561111f565b1515610b4757600080fd5b5050505050565b6060610b59826108a9565b1515610b6457600080fd5b6000828152600a602090815260409182902080548351601f600260001961010060018616150201909316929092049182018490048402810184019094528084529091830182828015610bf75780601f10610bcc57610100808354040283529160200191610bf7565b820191906000526020600020905b815481529060010190602001808311610bda57829003601f168201915b50505050509050919050565b606080610c0e611457565b600c805485908110610c1c57fe5b60009182526020918290206040805160029384029092018054600181161561010002600019011693909304601f81018590049094028201606090810182529082018481529193849291849190840182828015610cb95780601f10610c8e57610100808354040283529160200191610cb9565b820191906000526020600020905b815481529060010190602001808311610c9c57829003601f168201915b50505050508152602001600182018054600181600116156101000203166002900480601f016020809104026020016040519081016040528092919081815260200182805460018160011615610100020316600290048015610d5b5780601f10610d3057610100808354040283529160200191610d5b565b820191906000526020600020905b815481529060010190602001808311610d3e57829003601f168201915b5050505050815250509050806000015192508060200151915050915091565b600160a060020a03918216600090815260036020908152604080832093909416825291909152205460ff1690565b600b5433600160a060020a03908116911614610dc357600080fd5b600160a060020a0381161515610dd857600080fd5b600b54604051600160a060020a038084169216907f8be0079c531659141344cd1fd0a4f28419497f9722a3daafe3b4186f6b6457e090600090a3600b805473ffffffffffffffffffffffffffffffffffffffff1916600160a060020a0392909216919091179055565b600080610e4d836108fb565b905080600160a060020a031684600160a060020a03161480610e88575083600160a060020a0316610e7d84610659565b600160a060020a0316145b80610e985750610e988185610d7a565b949350505050565b81600160a060020a0316610eb3826108fb565b600160a060020a031614610ec657600080fd5b600081815260016020526040902054600160a060020a031615610f4a576000818152600160209081526040808320805473ffffffffffffffffffffffffffffffffffffffff1916905580518481529051600160a060020a038616927f8c5be1e5ebec7d5bd14f71427d1e84f3dd0314c0f7b2291e5b200ac8c7c3b925928290030190a35b5050565b6000806000610f5d85856112a8565b600084815260076020908152604080832054600160a060020a0389168452600690925290912054909350610f9890600163ffffffff61133d16565b600160a060020a038616600090815260066020526040902080549193509083908110610fc057fe5b90600052602060002001549050806006600087600160a060020a0316600160a060020a031681526020019081526020016000208481548110151561100057fe5b6000918252602080832090910192909255600160a060020a038716815260069091526040812080548490811061103257fe5b6000918252602080832090910192909255600160a060020a03871681526006909152604090208054906110699060001983016114ec565b50600093845260076020526040808520859055908452909220555050565b6000611093838361134f565b50600160a060020a039091166000908152600660209081526040808320805460018101825590845282842081018590559383526007909152902055565b6110da82826113de565b600880546000838152600960205260408120829055600182018355919091527ff3f7a9fe364faab93b216da50a3214154f22a0a2b415b23a84c8169e8b636ee3015550565b60008061113485600160a060020a0316611442565b1515611143576001915061129f565b84600160a060020a031663f0b9e5ba8786866040518463ffffffff167c01000000000000000000000000000000000000000000000000000000000281526004018084600160a060020a0316600160a060020a0316815260200183815260200180602001828103825283818151815260200191508051906020019080838360005b838110156111db5781810151838201526020016111c3565b50505050905090810190601f1680156112085780820380516001836020036101000a031916815260200191505b50945050505050602060405180830381600087803b15801561122957600080fd5b505af115801561123d573d6000803e3d6000fd5b505050506040513d602081101561125357600080fd5b50517fffffffff0000000000000000000000000000000000000000000000000000000081167ff0b9e5ba0000000000000000000000000000000000000000000000000000000014925090505b50949350505050565b81600160a060020a03166112bb826108fb565b600160a060020a0316146112ce57600080fd5b600160a060020a0382166000908152600260205260409020546112f890600163ffffffff61133d16565b600160a060020a039092166000908152600260209081526040808320949094559181529081905220805473ffffffffffffffffffffffffffffffffffffffff19169055565b60008282111561134957fe5b50900390565b600081815260208190526040902054600160a060020a03161561137157600080fd5b600081815260208181526040808320805473ffffffffffffffffffffffffffffffffffffffff1916600160a060020a038716908117909155835260029091529020546113be90600161144a565b600160a060020a0390921660009081526002602052604090209190915550565b600160a060020a03821615156113f357600080fd5b6113fd8282611087565b604080518281529051600160a060020a038416916000917fddf252ad1be2c89b69c2b068fc378daa952ba7f163c4a11628f55a4df523b3ef9181900360200190a35050565b6000903b1190565b8181018281101561091f57fe5b604080518082019091526060808252602082015290565b828054600181600116156101000203166002900490600052602060002090601f016020900481019282601f106114af57805160ff19168380011785556114dc565b828001600101855582156114dc579182015b828111156114dc5782518255916020019190600101906114c1565b506114e892915061150c565b5090565b81548183558181111561076a5760008381526020902061076a9181019083015b61065691905b808211156114e857600081556001016115125600a165627a7a723058209ca6d13c880cea1cb313baaecdaf8e113941e20b6e6485a98a202b430050cec70029",
  "source": "pragma solidity ^0.4.21;\n\nimport 'openzeppelin-solidity/contracts/token/ERC721/ERC721Token.sol';\nimport 'openzeppelin-solidity/contracts/ownership/Ownable.sol';\n\ncontract GradientToken is ERC721Token(\"GradientToken\", \"GRAD\"), Ownable {\n  // string private constant _name = \"GradientToken\";\n  // string private constant _symbol = \"GRAD\";\n\n  struct Gradient {\n    string outer;\n    string inner;\n  }\n\n  Gradient[] gradients;\n\n  function mint(string _outer, string _inner) public onlyOwner{\n    Gradient memory _gradient = Gradient({ outer: _outer, inner: _inner });\n    uint _gradientId = gradients.push(_gradient) - 1;\n  \n    _mint(msg.sender, _gradientId);\n  }\n\n  function getGradient( uint _gradientId ) public view returns(string outer, string inner){\n    Gradient memory _grad = gradients[_gradientId];\n  \n    outer = _grad.outer;\n    inner = _grad.inner;\n  }\n}\n",
  "sourcePath": "/Users/jheinnic/Git/throwdown-proxy/solidity/contracts/GradientToken.sol",
  "compiler": {
    "name": "solc",
    "version": "0.4.23+commit.124ca40d.Emscripten.clang"
  },
  "schemaVersion": "2.0.0",
  "updatedAt": "2018-05-27T09:33:02.037Z"
}