{
  "contractName": "Verifier",
  "abi": [
    {
      "anonymous": false,
      "inputs": [
        {
          "indexed": false,
          "name": "message",
          "type": "string"
        },
        {
          "indexed": false,
          "name": "isGood",
          "type": "bool"
        }
      ],
      "name": "Verified",
      "type": "event"
    },
    {
      "constant": false,
      "inputs": [
        {
          "name": "a",
          "type": "uint256[2]"
        },
        {
          "name": "a_p",
          "type": "uint256[2]"
        },
        {
          "name": "b",
          "type": "uint256[2][2]"
        },
        {
          "name": "b_p",
          "type": "uint256[2]"
        },
        {
          "name": "c",
          "type": "uint256[2]"
        },
        {
          "name": "c_p",
          "type": "uint256[2]"
        },
        {
          "name": "h",
          "type": "uint256[2]"
        },
        {
          "name": "k",
          "type": "uint256[2]"
        },
        {
          "name": "input",
          "type": "uint256[7]"
        }
      ],
      "name": "verifyTx",
      "outputs": [
        {
          "name": "r",
          "type": "bool"
        }
      ],
      "payable": false,
      "stateMutability": "nonpayable",
      "type": "function"
    }
  ],
  "bytecode": "0x608060405234801561001057600080fd5b5061169e806100206000396000f3006080604052600436106100405763ffffffff7c01000000000000000000000000000000000000000000000000000000006000350416631cdf13578114610045575b600080fd5b34801561005157600080fd5b506040805180820182526101d69136916004916044919083906002908390839080828437505060408051808201825294979695818101959450925060029150839083908082843750506040805180820190915293969594608081019493509150600290506000835b828210156100f25760408051808201825290808402860190600290839083908082843750505091835250506001909101906020016100b9565b50506040805180820182529396959481810194935091506002908390839080828437505060408051808201825294979695818101959450925060029150839083908082843750506040805180820182529497969581810195945092506002915083908390808284375050604080518082018252949796958181019594509250600291508390839080828437505060408051808201825294979695818101959450925060029150839083908082843750506040805160e0818101909252949796958181019594509250600791508390839080828437509396506101ea95505050505050565b604080519115158252519081900360200190f35b60006101f46114dd565b6040805180820182528c5181526020808e015181830152908352815180830183528c5181528c82015181830152838201528151608080820184528c51518285019081528d51840151606080850191909152908352845180860186528e8501805151825251850151818601528385015285850192909252835180850185528c5181528c8401518185015282860152835180850185528b5181528b84015181850152908501528251808401845289518152898301518184015260a08501528251808401845288518152888301518184015260e0808601919091528351808501855288518152888401518185015260c0860152835160078082526101008201909552919360009390919083019080388339019050509150600090505b60078110156103475784816007811061032257fe5b6020020151828281518110151561033557fe5b6020908102909101015260010161030d565b604080516001602080830191909152828252818301527f5472616e73616374696f6e20766572696669636174696f6e20626567696e732e606082015290517fe3da507c4ec77b305a5326dcb98b6cb466b555315d203e613deee09aa3701f1b9181900360800190a16103b982846104d1565b15156104545760408051600160208201528181526022818301527f5472616e73616374696f6e207375636365737366756c6c79207665726966696560608201527f642e000000000000000000000000000000000000000000000000000000000000608082015290517fe3da507c4ec77b305a5326dcb98b6cb466b555315d203e613deee09aa3701f1b9181900360a00190a1600193506104c1565b604080516000602080830191909152828252818301527f5472616e73616374696f6e206661696c656420766572696669636174696f6e2e606082015290517fe3da507c4ec77b305a5326dcb98b6cb466b555315d203e613deee09aa3701f1b9181900360800190a1600093505b5050509998505050505050505050565b60006104db611552565b6104e36115c2565b60006104ed6106dc565b92508260e0015151865160010114151561050657600080fd5b5050604080518082019091526000808252602082018190525b855181101561057a576105708261056b8560e001518460010181518110151561054457fe5b90602001906020020151898581518110151561055c57fe5b90602001906020020151610ed2565b610f2d565b915060010161051f565b6105a0828460e00151600081518110151561059157fe5b90602001906020020151610f2d565b8551845160208801519294506105c6926105b990610f7c565b6105c1611009565b6110c9565b15156105d557600193506106d3565b6105ef836020015186604001516105b98860600151610f7c565b15156105fe57600293506106d3565b610618856080015184604001516105b98860a00151610f7c565b151561062757600393506106d3565b61066e8560c00151846060015161065261064d8661056b8b600001518c60800151610f2d565b610f7c565b8660a001516106648860800151610f7c565b8a604001516111b4565b151561067d57600493506106d3565b6106bf61068e838760000151610f2d565b86604001516106a08860e00151610f7c565b8660c001516106b28a60800151610f7c565b6106ba611009565b6111b4565b15156106ce57600593506106d3565b600093505b50505092915050565b6106e4611552565b60408051608080820183527f2d60c2f849d621d771799ac3871cdfc36cfdd443c9765fe9e36b2ee1db6d03d98284019081527f163ac43b4a629da20e8669c21bd1819509808b8a8d8e3444e0a42bf1d6a73647606080850191909152908352835180850185527f151061d1dba3a546ec5505ca1ff5e4fce86834943b21acd59ae3ab5c5d09b47681527f0d1b6381aa7f8cce4f679915c4076a83db3c2adcf99da35d568fc28872e6567760208083019190915280850191909152928552835180850185527f13068503becd4d7c497d84b7cdb732602434f8fb9102bbf70ee230388532903281527f1461e890512568cfb1eebb6c792c863f7cb1e268a018b4d59ef179e67e16cbb68185015285840152835180830185527f23f90471d88b6855451d38a805b802cbef1e44d2e3e4c955a2226fe4cfd25bc48186019081527f079d170b65f102e82b36cf231c1d7b9791da4daa950ab1399a5fa89f4a55e2aa828401528152845180860186527f1e1595fce5c9e43b0d8f3ce2d130fc37aaff1284bffccede51645d38c7541c6e81527e1b5ff9a60bd705b95b980dddda1725492cfb4ffee11454893dc9de42976a32818601528185015285850152835180830185527f1e6c437fac0c0b88302ab27581a7dbb754e04c8c6897fb5d7db4fd82e2b813c18186019081527f103580d372e2c7cf81f199ae23ebcdecf8debb89996e1e150af8d2bcc3cfc760828401528152845180860186527f2f26849f3a9828acfb084a4c5a37d42ca47a5bfa243c15c944341593d029f93081527f29d3a4f2362039f101b24b43a7fe3e5f71e6330c4ea4c76464168fd49e27f2d8818601528185015285820152835180850185527f0ce057e025d6f48066949c2b5fb3513524b6cb0b02792ffddb0f58c98940dfa681527f1db0a15c52e9093def963d4ae54b3c5cf75760f48ba7c130d190516b0fd249898185015285830152835180830185527f115125f9ec6158708886068c512c7767424e72bbe7b057ca862936e07483f11b8186019081527f27d34772a62c12f5e30d9586cd29316bcc240316c7f0e9bca12f067f01629207828401528152845180860186527f14069e51ec1ac78ccc35e417fd8125bf3f7f1ebe8fccb57ec60759d81c3e6e9981527f0ef2a3119f4dc6cf9bb9d3e51bab251f7868e07cf584bf57f35db647a9a38160818601528185015260a0860152835191820184527f19172af304c82e4d2ad691fcc73afb6cdccaf159c3c620464b0c32e59e8f980f8285019081527f1b47579a42ba215dc3c34f63211023b4f54b8f3d7a678ae23259a089eb07abf7918301919091528152825180840184527f24a054a9db21c4563099e96569182201ad102ef91d7f5081564226c9fe3fccde81527f148c95729ef0b83efb5750059e93ea1cdc569e77b079275cfc1907dc5e591956818401528183015260c0840152815160088082526101208201909352919082015b610b176115c2565b815260200190600190039081610b0f57505060e08201908152604080518082019091527f27c5c20e1a14ee85762394af6f55b15ed63f8044b8cb069c5b6bb38aa107a25c81527f190f7cfb94580e12025fb6ad8fb74434046e10729ee69a316d844eb59fb7a4636020820152905180516000908110610b9257fe5b9060200190602002018190525060408051908101604052807f0c88cad61e04b92f841e4ea933afeb418db17029fed2e572989f9b78879c9bd581526020017f0e672223a666394c15d0156de065e207cc8208fea389e3cb64a8a33ace8fcc378152508160e001516001815181101515610c0757fe5b9060200190602002018190525060408051908101604052807f10ced3615af38f6bcf5801b3cdc69199a235aea1ac48f3c7b1e01994e191dfe981526020017f2ab20cee7991f4811b44370b52bf5762029f466839634671bfeb3db2c905ee588152508160e001516002815181101515610c7c57fe5b9060200190602002018190525060408051908101604052807f13e36107c83e2cea41383f3fa6fd2dcab9f3d4d83866952ef0a197397b23bec181526020017f14d288a69fb1e0c09cbbca45583c126c339fa672ad240bbd56121d76b7ab15d98152508160e001516003815181101515610cf157fe5b9060200190602002018190525060408051908101604052807f0a7c8f3fe0c8db3acafbb069d778da8865c46cc29275cacb0b16f57ae446758581526020017f03729b9f5d0227cc95d928f7901ef13c15d33ecc822c2109be58e372a54c0c518152508160e001516004815181101515610d6657fe5b9060200190602002018190525060408051908101604052807f15776be0bf5c3dd1eb869bf04aa0a7a21041c5e409a8f6875cc6dcb7b5bac19d81526020017f03577155f69422fac2cee020809ba8496e7f4f072a669d825561847fa995919b8152508160e001516005815181101515610ddb57fe5b9060200190602002018190525060408051908101604052807f032b73ed4efca32224a737bc31a3b45b2a5fb0c514c7dabc93b28f392e8a43d981526020017f12ffd2370e814afb0820480f1e6321b42182c76bbe767d8a56617c74deb460448152508160e001516006815181101515610e5057fe5b9060200190602002018190525060408051908101604052807f169c44a63c9f9ccb540840e41ea38b9c7efa6975b5940aeea2342a734ec5ea6b81526020017f2145ec846c2f30af6d41f09d2e6cd55a501f8e27fc7597c2a84bd3c13eef442c8152508160e001516007815181101515610ec557fe5b6020908102909101015290565b610eda6115c2565b610ee26115d9565b83518152602080850151908201526040810183905260006060836080848460076107d05a03f19050808015610f1657610f18565bfe5b50801515610f2557600080fd5b505092915050565b610f356115c2565b610f3d6115f8565b8351815260208085015181830152835160408301528301516060808301919091526000908360c0848460066107d05a03f19050808015610f1657610f18565b610f846115c2565b81517f30644e72e131a029b85045b68181585d97816a916871ca8d3c208c16d87cfd4790158015610fb757506020830151155b15610fd75760408051808201909152600080825260208201529150611003565b604080519081016040528084600001518152602001828560200151811515610ffb57fe5b068303905291505b50919050565b611011611617565b50604080516080810182527f198e9393920d483a7260bfb731fb5d25f1aa493335a9e71297e485b7aef312c28183019081527f1800deef121f1e76426a00665e5c4479674322d4f75edadd46debd5cd992f6ed6060830152815281518083019092527f090689d0585ff075ec9e99ad690c3395bc4b313370b38ef355acdadcd122975b82527f12c85ea5db8c6deb4aab71808dcb408fe3d1e7690c43d37b4ce6cc0166fa7daa60208381019190915281019190915290565b6040805160028082526060828101909352600092918291816020015b6110ed6115c2565b8152602001906001900390816110e557505060408051600280825260608201909252919350602082015b61111f611617565b8152602001906001900390816111175790505090508682600081518110151561114457fe5b60209081029091010152815185908390600190811061115f57fe5b60209081029091010152805186908290600090811061117a57fe5b60209081029091010152805184908290600190811061119557fe5b602090810290910101526111a982826112d8565b979650505050505050565b604080516003808252608082019092526000916060918291816020015b6111d96115c2565b8152602001906001900390816111d157505060408051600380825260808201909252919350602082015b61120b611617565b8152602001906001900390816112035790505090508882600081518110151561123057fe5b60209081029091010152815187908390600190811061124b57fe5b60209081029091010152815185908390600290811061126657fe5b60209081029091010152805188908290600090811061128157fe5b60209081029091010152805186908290600190811061129c57fe5b6020908102909101015280518490829060029081106112b757fe5b602090810290910101526112cb82826112d8565b9998505050505050505050565b6000806000606060006112e9611638565b86518851600091146112fa57600080fd5b885195508560060294508460405190808252806020026020018201604052801561132e578160200160208202803883390190505b509350600092505b858310156114a357888381518110151561134c57fe5b6020908102909101015151845185906006860290811061136857fe5b60209081029091010152885189908490811061138057fe5b906020019060200201516020015184846006026001018151811015156113a257fe5b6020908102909101015287518890849081106113ba57fe5b6020908102919091010151515184518590600260068702019081106113db57fe5b6020908102909101015287518890849081106113f357fe5b602090810291909101810151510151845185906003600687020190811061141657fe5b60209081029091010152875188908490811061142e57fe5b602090810291909101810151015151845185906004600687020190811061145157fe5b60209081029091010152875188908490811061146957fe5b6020908102919091018101518101510151845185906005600687020190811061148e57fe5b60209081029091010152600190920191611336565b6020826020870260208701600060086107d05a03f19050808015610f1657508015156114ce57600080fd5b50511515979650505050505050565b610240604051908101604052806114f26115c2565b81526020016114ff6115c2565b815260200161150c611617565b81526020016115196115c2565b81526020016115266115c2565b81526020016115336115c2565b81526020016115406115c2565b815260200161154d6115c2565b905290565b61032060405190810160405280611567611617565b81526020016115746115c2565b8152602001611581611617565b815260200161158e611617565b815260200161159b6115c2565b81526020016115a8611617565b81526020016115b5611617565b8152602001606081525090565b604080518082019091526000808252602082015290565b6060604051908101604052806003906020820280388339509192915050565b6080604051908101604052806004906020820280388339509192915050565b60806040519081016040528061162b611657565b815260200161154d611657565b6020604051908101604052806001906020820280388339509192915050565b604080518082018252906002908290803883395091929150505600a165627a7a72305820845e918be3b2e5e9a80c8090c028df6970e1ade5c9b1c6389693c24f7219f3460029",
  "source": "// This file is MIT Licensed.\n//\n// Copyright 2017 Christian Reitwiessner\n// Permission is hereby granted, free of charge, to any person obtaining a copy of this software and associated documentation files (the \"Software\"), to deal in the Software without restriction, including without limitation the rights to use, copy, modify, merge, publish, distribute, sublicense, and/or sell copies of the Software, and to permit persons to whom the Software is furnished to do so, subject to the following conditions:\n// The above copyright notice and this permission notice shall be included in all copies or substantial portions of the Software.\n// THE SOFTWARE IS PROVIDED \"AS IS\", WITHOUT WARRANTY OF ANY KIND, EXPRESS OR IMPLIED, INCLUDING BUT NOT LIMITED TO THE WARRANTIES OF MERCHANTABILITY, FITNESS FOR A PARTICULAR PURPOSE AND NONINFRINGEMENT. IN NO EVENT SHALL THE AUTHORS OR COPYRIGHT HOLDERS BE LIABLE FOR ANY CLAIM, DAMAGES OR OTHER LIABILITY, WHETHER IN AN ACTION OF CONTRACT, TORT OR OTHERWISE, ARISING FROM, OUT OF OR IN CONNECTION WITH THE SOFTWARE OR THE USE OR OTHER DEALINGS IN THE SOFTWARE.\n\npragma solidity ^0.4.24;\n\nimport './Pairing.sol';\n\ncontract Verifier {\n    using Pairing for *;\n\n    struct VerifyingKey {\n        Pairing.G2Point A;\n        Pairing.G1Point B;\n        Pairing.G2Point C;\n        Pairing.G2Point gamma;\n        Pairing.G1Point gammaBeta1;\n        Pairing.G2Point gammaBeta2;\n        Pairing.G2Point Z;\n        Pairing.G1Point[] IC;\n    }\n\n    struct Proof {\n        Pairing.G1Point A;\n        Pairing.G1Point A_p;\n        Pairing.G2Point B;\n        Pairing.G1Point B_p;\n        Pairing.G1Point C;\n        Pairing.G1Point C_p;\n        Pairing.G1Point K;\n        Pairing.G1Point H;\n    }\n\n    function verifyingKey() pure internal returns (VerifyingKey vk) {\n        vk.A = Pairing.G2Point([0x2d60c2f849d621d771799ac3871cdfc36cfdd443c9765fe9e36b2ee1db6d03d9, 0x163ac43b4a629da20e8669c21bd1819509808b8a8d8e3444e0a42bf1d6a73647], [0x151061d1dba3a546ec5505ca1ff5e4fce86834943b21acd59ae3ab5c5d09b476, 0xd1b6381aa7f8cce4f679915c4076a83db3c2adcf99da35d568fc28872e65677]);\n        vk.B = Pairing.G1Point(0x13068503becd4d7c497d84b7cdb732602434f8fb9102bbf70ee2303885329032, 0x1461e890512568cfb1eebb6c792c863f7cb1e268a018b4d59ef179e67e16cbb6);\n        vk.C = Pairing.G2Point([0x23f90471d88b6855451d38a805b802cbef1e44d2e3e4c955a2226fe4cfd25bc4, 0x79d170b65f102e82b36cf231c1d7b9791da4daa950ab1399a5fa89f4a55e2aa], [0x1e1595fce5c9e43b0d8f3ce2d130fc37aaff1284bffccede51645d38c7541c6e, 0x1b5ff9a60bd705b95b980dddda1725492cfb4ffee11454893dc9de42976a32]);\n        vk.gamma = Pairing.G2Point([0x1e6c437fac0c0b88302ab27581a7dbb754e04c8c6897fb5d7db4fd82e2b813c1, 0x103580d372e2c7cf81f199ae23ebcdecf8debb89996e1e150af8d2bcc3cfc760], [0x2f26849f3a9828acfb084a4c5a37d42ca47a5bfa243c15c944341593d029f930, 0x29d3a4f2362039f101b24b43a7fe3e5f71e6330c4ea4c76464168fd49e27f2d8]);\n        vk.gammaBeta1 = Pairing.G1Point(0xce057e025d6f48066949c2b5fb3513524b6cb0b02792ffddb0f58c98940dfa6, 0x1db0a15c52e9093def963d4ae54b3c5cf75760f48ba7c130d190516b0fd24989);\n        vk.gammaBeta2 = Pairing.G2Point([0x115125f9ec6158708886068c512c7767424e72bbe7b057ca862936e07483f11b, 0x27d34772a62c12f5e30d9586cd29316bcc240316c7f0e9bca12f067f01629207], [0x14069e51ec1ac78ccc35e417fd8125bf3f7f1ebe8fccb57ec60759d81c3e6e99, 0xef2a3119f4dc6cf9bb9d3e51bab251f7868e07cf584bf57f35db647a9a38160]);\n        vk.Z = Pairing.G2Point([0x19172af304c82e4d2ad691fcc73afb6cdccaf159c3c620464b0c32e59e8f980f, 0x1b47579a42ba215dc3c34f63211023b4f54b8f3d7a678ae23259a089eb07abf7], [0x24a054a9db21c4563099e96569182201ad102ef91d7f5081564226c9fe3fccde, 0x148c95729ef0b83efb5750059e93ea1cdc569e77b079275cfc1907dc5e591956]);\n        vk.IC = new Pairing.G1Point[](8);\n        vk.IC[0] = Pairing.G1Point(0x27c5c20e1a14ee85762394af6f55b15ed63f8044b8cb069c5b6bb38aa107a25c, 0x190f7cfb94580e12025fb6ad8fb74434046e10729ee69a316d844eb59fb7a463);\n        vk.IC[1] = Pairing.G1Point(0xc88cad61e04b92f841e4ea933afeb418db17029fed2e572989f9b78879c9bd5, 0xe672223a666394c15d0156de065e207cc8208fea389e3cb64a8a33ace8fcc37);\n        vk.IC[2] = Pairing.G1Point(0x10ced3615af38f6bcf5801b3cdc69199a235aea1ac48f3c7b1e01994e191dfe9, 0x2ab20cee7991f4811b44370b52bf5762029f466839634671bfeb3db2c905ee58);\n        vk.IC[3] = Pairing.G1Point(0x13e36107c83e2cea41383f3fa6fd2dcab9f3d4d83866952ef0a197397b23bec1, 0x14d288a69fb1e0c09cbbca45583c126c339fa672ad240bbd56121d76b7ab15d9);\n        vk.IC[4] = Pairing.G1Point(0xa7c8f3fe0c8db3acafbb069d778da8865c46cc29275cacb0b16f57ae4467585, 0x3729b9f5d0227cc95d928f7901ef13c15d33ecc822c2109be58e372a54c0c51);\n        vk.IC[5] = Pairing.G1Point(0x15776be0bf5c3dd1eb869bf04aa0a7a21041c5e409a8f6875cc6dcb7b5bac19d, 0x3577155f69422fac2cee020809ba8496e7f4f072a669d825561847fa995919b);\n        vk.IC[6] = Pairing.G1Point(0x32b73ed4efca32224a737bc31a3b45b2a5fb0c514c7dabc93b28f392e8a43d9, 0x12ffd2370e814afb0820480f1e6321b42182c76bbe767d8a56617c74deb46044);\n        vk.IC[7] = Pairing.G1Point(0x169c44a63c9f9ccb540840e41ea38b9c7efa6975b5940aeea2342a734ec5ea6b, 0x2145ec846c2f30af6d41f09d2e6cd55a501f8e27fc7597c2a84bd3c13eef442c);\n    }\n\n    function verify(uint[] input, Proof proof) internal returns (uint) {\n        VerifyingKey memory vk = verifyingKey();\n        require(input.length + 1 == vk.IC.length);\n        // Compute the linear combination vk_x\n        Pairing.G1Point memory vk_x = Pairing.G1Point(0, 0);\n        for (uint i = 0; i < input.length; i++)\n            vk_x = Pairing.addition(vk_x, Pairing.scalar_mul(vk.IC[i + 1], input[i]));\n        vk_x = Pairing.addition(vk_x, vk.IC[0]);\n        if (!Pairing.pairingProd2(proof.A, vk.A, Pairing.negate(proof.A_p), Pairing.P2())) return 1;\n        if (!Pairing.pairingProd2(vk.B, proof.B, Pairing.negate(proof.B_p), Pairing.P2())) return 2;\n        if (!Pairing.pairingProd2(proof.C, vk.C, Pairing.negate(proof.C_p), Pairing.P2())) return 3;\n        if (!Pairing.pairingProd3(\n            proof.K, vk.gamma,\n            Pairing.negate(Pairing.addition(vk_x, Pairing.addition(proof.A, proof.C))), vk.gammaBeta2,\n            Pairing.negate(vk.gammaBeta1), proof.B\n        )) return 4;\n        if (!Pairing.pairingProd3(\n                Pairing.addition(vk_x, proof.A), proof.B,\n                Pairing.negate(proof.H), vk.Z,\n                Pairing.negate(proof.C), Pairing.P2()\n        )) return 5;\n        return 0;\n    }\n    event Verified(string message, bool isGood);\n\n    function verifyTx(\n            uint[2] a,\n            uint[2] a_p,\n            uint[2][2] b,\n            uint[2] b_p,\n            uint[2] c,\n            uint[2] c_p,\n            uint[2] h,\n            uint[2] k,\n            uint[7] input\n        ) public returns (bool r) {\n        Proof memory proof;\n        proof.A = Pairing.G1Point(a[0], a[1]);\n        proof.A_p = Pairing.G1Point(a_p[0], a_p[1]);\n        proof.B = Pairing.G2Point([b[0][0], b[0][1]], [b[1][0], b[1][1]]);\n        proof.B_p = Pairing.G1Point(b_p[0], b_p[1]);\n        proof.C = Pairing.G1Point(c[0], c[1]);\n        proof.C_p = Pairing.G1Point(c_p[0], c_p[1]);\n        proof.H = Pairing.G1Point(h[0], h[1]);\n        proof.K = Pairing.G1Point(k[0], k[1]);\n        uint[] memory inputValues = new uint[](input.length);\n        for(uint i = 0; i < input.length; i++){\n            inputValues[i] = input[i];\n        }\n        emit Verified(\"Transaction verification begins.\", true);\n        if (verify(inputValues, proof) == 0) {\n            emit Verified(\"Transaction successfully verified.\", true);\n            return true;\n        } else {\n            emit Verified(\"Transaction failed verification.\", false);\n            return false;\n        }\n    }\n}\n",
  "sourcePath": "/Users/jheinnic/Git/throwdown-proxy/solidity/contracts/Wavelets02Verifier.sol",
  "compiler": {
    "name": "solc",
    "version": "0.4.24+commit.e67f0147.Emscripten.clang"
  },
  "schemaVersion": "2.0.1",
  "updatedAt": "2018-06-29T02:47:45.470Z"
}