{
  "contractName": "Waldo02Verifier",
  "abi": [
    {
      "anonymous": false,
      "inputs": [
        {
          "indexed": false,
          "name": "message",
          "type": "string"
        },
        {
          "indexed": false,
          "name": "isGood",
          "type": "bool"
        }
      ],
      "name": "Verified",
      "type": "event"
    },
    {
      "anonymous": false,
      "inputs": [
        {
          "indexed": false,
          "name": "message",
          "type": "string"
        },
        {
          "indexed": false,
          "name": "isGood",
          "type": "bool"
        }
      ],
      "name": "PrecompiledCall",
      "type": "event"
    },
    {
      "constant": false,
      "inputs": [
        {
          "name": "a",
          "type": "uint256[2]"
        },
        {
          "name": "a_p",
          "type": "uint256[2]"
        },
        {
          "name": "b",
          "type": "uint256[2][2]"
        },
        {
          "name": "b_p",
          "type": "uint256[2]"
        },
        {
          "name": "c",
          "type": "uint256[2]"
        },
        {
          "name": "c_p",
          "type": "uint256[2]"
        },
        {
          "name": "h",
          "type": "uint256[2]"
        },
        {
          "name": "k",
          "type": "uint256[2]"
        },
        {
          "name": "input",
          "type": "uint256[5]"
        }
      ],
      "name": "verifyTx",
      "outputs": [],
      "payable": false,
      "stateMutability": "nonpayable",
      "type": "function"
    }
  ],
  "bytecode": "0x608060405234801561001057600080fd5b506117ef806100206000396000f3006080604052600436106100405763ffffffff7c010000000000000000000000000000000000000000000000000000000060003504166350c007c68114610045575b600080fd5b34801561005157600080fd5b506040805180820182526101d69136916004916044919083906002908390839080828437505060408051808201825294979695818101959450925060029150839083908082843750506040805180820190915293969594608081019493509150600290506000835b828210156100f25760408051808201825290808402860190600290839083908082843750505091835250506001909101906020016100b9565b50506040805180820182529396959481810194935091506002908390839080828437505060408051808201825294979695818101959450925060029150839083908082843750506040805180820182529497969581810195945092506002915083908390808284375050604080518082018252949796958181019594509250600291508390839080828437505060408051808201825294979695818101959450925060029150839083908082843750506040805160a0818101909252949796958181019594509250600591508390839080828437509396506101d895505050505050565b005b6101e061160e565b6040805180820182528b5181526020808d015181830152908352815180830183528b5181528b82015181830152838201528151608080820184528b51518285019081528c51840151606080850191909152908352845180860186528d8501805151825251850151818601528385015285850192909252835180850185528b5181528b8401518185015282860152835180850185528a5181528a84015181850152908501528251808401845288518152888301518184015260a0808601919091528351808501855288518152888401518185015260e08601528351808501855287518152878401518185015260c0808701919091528451600580825291810190955291936000939092919083019080388339019050509150600090505b60058110156103365783816005811061031157fe5b6020020151828281518110151561032457fe5b602090810290910101526001016102fc565b604080516001602080830191909152828252818301527f5472616e73616374696f6e20766572696669636174696f6e20626567696e732e606082015290516000805160206117a48339815191529181900360800190a1610396828461047e565b151561041b5760408051600160208201528181526022818301527f5472616e73616374696f6e207375636365737366756c6c79207665726966696560608201527f642e000000000000000000000000000000000000000000000000000000000000608082015290516000805160206117a48339815191529181900360a00190a1610470565b6040805160006020820152818152601d818301527f5472616e73616374696f6e206661696c656420746f207665726966792e000000606082015290516000805160206117a48339815191529181900360800190a15b505050505050505050505050565b6000610488611683565b6104906116f3565b600061049a610886565b92508260e001515186516001011415156104b357600080fd5b5050604080518082019091526000808252602082018190525b85518110156105275761051d826105188560e00151846001018151811015156104f157fe5b90602001906020020151898581518110151561050957fe5b90602001906020020151610f91565b61100f565b91506001016104cc565b61054d828460e00151600081518110151561053e57fe5b9060200190602002015161100f565b60408051600160208201528181526016818301527f5374617274206f662070616972696e6720746573747300000000000000000000606082015290519193506000805160206117a4833981519152919081900360800190a16105cc856000015184600001516105bf8860200151611083565b6105c7611110565b6111d0565b15156105db576001935061087d565b60408051600160208201528181526019818301527f5061737365642066697273742070616972696e67207465737400000000000000606082015290516000805160206117a48339815191529181900360800190a1610649836020015186604001516105bf8860600151611083565b1515610658576002935061087d565b6040805160016020820152818152601a818301527f506173736564207365636f6e642070616972696e672074657374000000000000606082015290516000805160206117a48339815191529181900360800190a16106c6856080015184604001516105bf8860a00151611083565b15156106d5576003935061087d565b60408051600160208201528181526019818301527f5061737365642074686972642070616972696e67207465737400000000000000606082015290516000805160206117a48339815191529181900360800190a16107708560c00151846060015161075461074f866105188b600001518c6080015161100f565b611083565b8660a001516107668860800151611083565b8a604001516112bb565b151561077f576004935061087d565b6040805160016020820152818152601a818301527f50617373656420666f757274682070616972696e672074657374000000000000606082015290516000805160206117a48339815191529181900360800190a16108156107e483876000015161100f565b86604001516107f68860e00151611083565b8660c001516108088a60800151611083565b610810611110565b6112bb565b1515610824576005935061087d565b60408051600160208201528181526019818301527f5061737365642066696674682070616972696e67207465737400000000000000606082015290516000805160206117a48339815191529181900360800190a1600093505b50505092915050565b61088e611683565b60408051608080820183527f1457a49bdde8032ecb4fbcaa01a9bf7a3d2439fab574fbce904545ddae0a3f638284019081527f14de6d766e4b87254ad022327f28ea4c33ded5b8192a88898cf37650fd608f18606080850191909152908352835180850185527f192c26549c5762e5a1ab56520b066d2e2c01d02d86c867ea89579ae47b7c301d81527f04502eb193d2be75861a2229f81a2166c45d2c97b56b46040ba090ec5de2c9b160208083019190915280850191909152928552835180850185527f29e95936e5b23ba11b12110cbc6a79e075945cdd0cf75998ff603c083e9b4b4981527f1544d5e2f2d4963d132ac4fa0b02f1635e8d61b84b676df3f52f6ab59d087a7b8185015285840152835180830185527f2169a75f7d4247559240559ca86ed8c23ac846856b8ff60d11298cd750b9b7838186019081527f2f3e1fd2da93e9d266d1e460f17dcd698f90554a2a46ac441b6cffc638e45b69828401528152845180860186527f2b4d4d536a979aa680a58bab1161724da4e4d7e47181d567a9e56f3e9abbba3681527f19160bf5476e3b2fa631d7a48c1154a4d81dbde02d4ffa3d369c184d2245e6ad818601528185015285850152835180830185527f1f25410074bcba7fc394ef8ef6af87d4179abd7dcddb61cfeab29f0a07c4789c8186019081527f146b67298a5e5b2c147d18f423de6d5f7e57349511ecabebb3ac994b112ce1a2828401528152845180860186527f17db69772091f44b07b977702e9411ab2854df1e9a117d5c969cf838fd68997081527f161565b1ba08c51b7828f64aa3e546311b7a819943f582a229048a1259390bb9818601528185015285820152835180850185527f051c0c15116a8ed4809a363bedaa9ae78faa0f046bd541112cea3eacdbdfc57a81527f246277b8ad97301ecb4f8dd9e3bbd053d93725155bac07c545f28e34e94825618185015285830152835180830185527f205378f41c6f86d71ac21e616898866e8c13e1b62f570108cf6564e0cef2d7d28186019081527f06fbb06b1d25ec4ae33a04e60390a336e9327f0a013b433180f50dd3fb90a54c828401528152845180860186527f1b4c7bde4bc824b0354d6ddd76b6905c671da3447b93e3eb733dafee5fefc09781527e0f25be358316d04a9cdae20659c9b41b8754dfe254e6d18713d5b0c2ca5a7b818601528185015260a0860152835191820184527f0d83e0ab2e2b963e0114405a6527d02cbf9c504908703563c4ab84d4517f96cd8285019081527f09ccf7daf5a6b3086385853f60cfed94da5f4d7762a5931bcc3a043476064639918301919091528152825180840184527f25aa257db68c724d36a1c26224b9584132f3db0cdeb0010162432266b83cff1e81527f2aabaf675f57b6d6517265f967f4bd665fa91ec704f08ef0f45e5148c2141764818401528183015260c08401528151600680825260e08201909352919082015b610cc06116f3565b815260200190600190039081610cb857505060e08201908152604080518082019091527f1a60dd5cdd8ce5a1bd72943d64621e830be132085e52adaac5834d35bb309a5481527f17ccad4d1a5231a15801b5e8c116893d243e47dd8e982c5a0ebb88c0383d395b6020820152905180516000908110610d3b57fe5b9060200190602002018190525060408051908101604052807f1eca92b396f817c56a18a01212f3c3aa28b2ed28867863db2eb47841d57e4e3781526020017f162b45df44bf89223b7e7bc7f4b65eca46c9f70d0aa614b994cee1bb5ba13d828152508160e001516001815181101515610db057fe5b9060200190602002018190525060408051908101604052807f1544f22986051529aa415a22e1c230f75ce377e435050a8a1bf890dbd4b11ed081526020017f1de3fb24bee09ddc8042ecaf3d493decf93092290077c8d02c4999692a8940e38152508160e001516002815181101515610e2557fe5b9060200190602002018190525060408051908101604052807f1026a0e8a1148f13e845492316702550c69aba63636d077c55a0e795eeb50a4f81526020017f0f3fb1b309b5f56a68741c5fb15716e8200994917ff4c57cdfde76f66540ac528152508160e001516003815181101515610e9a57fe5b9060200190602002018190525060408051908101604052807f1868dcf9a8247ba93c210e642a29e533cb62363a8be2bf863250ef03e18f23b481526020017f05fe4c5208a010fcd62b8d132af2fb17c8150a266c0d6600bfeab43d8380dcfb8152508160e001516004815181101515610f0f57fe5b9060200190602002018190525060408051908101604052807f044b0dfe65902d113b7d0850fb3759c2823674a21caf1c824df2d8379222a5f581526020017f1fd19e9b0c01763f0cb51c12e0597877e35eb3281e2bcf893be6a02d649fcd1f8152508160e001516005815181101515610f8457fe5b6020908102909101015290565b610f996116f3565b610fa161170a565b83518152602080850151908201526040810183905260006060836080848460076107d05a03f19050808015610fd557610ffa565b60207f4661696c6564207363616c61725f6d756c7420286f703d372900000000000000fd5b5080151561100757600080fd5b505092915050565b6110176116f3565b61101f611729565b8351815260208085015181830152835160408301528301516060808301919091526000908360c0848460066107d05a03f1905080801561105e57610ffa565b60207f4661696c6564206164646974696f6e20286f703d362900000000000000000000fd5b61108b6116f3565b81517f30644e72e131a029b85045b68181585d97816a916871ca8d3c208c16d87cfd47901580156110be57506020830151155b156110de576040805180820190915260008082526020820152915061110a565b60408051908101604052808460000151815260200182856020015181151561110257fe5b068303905291505b50919050565b611118611748565b50604080516080810182527f198e9393920d483a7260bfb731fb5d25f1aa493335a9e71297e485b7aef312c28183019081527f1800deef121f1e76426a00665e5c4479674322d4f75edadd46debd5cd992f6ed6060830152815281518083019092527f090689d0585ff075ec9e99ad690c3395bc4b313370b38ef355acdadcd122975b82527f12c85ea5db8c6deb4aab71808dcb408fe3d1e7690c43d37b4ce6cc0166fa7daa60208381019190915281019190915290565b6040805160028082526060828101909352600092918291816020015b6111f46116f3565b8152602001906001900390816111ec57505060408051600280825260608201909252919350602082015b611226611748565b81526020019060019003908161121e5790505090508682600081518110151561124b57fe5b60209081029091010152815185908390600190811061126657fe5b60209081029091010152805186908290600090811061128157fe5b60209081029091010152805184908290600190811061129c57fe5b602090810290910101526112b082826113df565b979650505050505050565b604080516003808252608082019092526000916060918291816020015b6112e06116f3565b8152602001906001900390816112d857505060408051600380825260808201909252919350602082015b611312611748565b81526020019060019003908161130a5790505090508882600081518110151561133757fe5b60209081029091010152815187908390600190811061135257fe5b60209081029091010152815185908390600290811061136d57fe5b60209081029091010152805188908290600090811061138857fe5b6020908102909101015280518690829060019081106113a357fe5b6020908102909101015280518490829060029081106113be57fe5b602090810290910101526113d282826113df565b9998505050505050505050565b6000806000606060006113f0611769565b865188516000911461140157600080fd5b8851955085600602945084604051908082528060200260200182016040528015611435578160200160208202803883390190505b509350600092505b858310156115aa57888381518110151561145357fe5b6020908102909101015151845185906006860290811061146f57fe5b60209081029091010152885189908490811061148757fe5b906020019060200201516020015184846006026001018151811015156114a957fe5b6020908102909101015287518890849081106114c157fe5b6020908102919091010151515184518590600260068702019081106114e257fe5b6020908102909101015287518890849081106114fa57fe5b602090810291909101810151510151845185906003600687020190811061151d57fe5b60209081029091010152875188908490811061153557fe5b602090810291909101810151015151845185906004600687020190811061155857fe5b60209081029091010152875188908490811061157057fe5b6020908102919091018101518101510151845185906005600687020190811061159557fe5b6020908102909101015260019092019161143d565b6020826020870260208701600060086107d05a03f190508080156115cd576115f2565b60207f4661696c65642070616972696e6720286f703d38290000000000000000000000fd5b508015156115ff57600080fd5b50511515979650505050505050565b610240604051908101604052806116236116f3565b81526020016116306116f3565b815260200161163d611748565b815260200161164a6116f3565b81526020016116576116f3565b81526020016116646116f3565b81526020016116716116f3565b815260200161167e6116f3565b905290565b61032060405190810160405280611698611748565b81526020016116a56116f3565b81526020016116b2611748565b81526020016116bf611748565b81526020016116cc6116f3565b81526020016116d9611748565b81526020016116e6611748565b8152602001606081525090565b604080518082019091526000808252602082015290565b6060604051908101604052806003906020820280388339509192915050565b6080604051908101604052806004906020820280388339509192915050565b60806040519081016040528061175c611788565b815260200161167e611788565b6020604051908101604052806001906020820280388339509192915050565b604080518082018252906002908290803883395091929150505600e3da507c4ec77b305a5326dcb98b6cb466b555315d203e613deee09aa3701f1ba165627a7a72305820a898b89fa7260f56c113c8da91673a50ad195f468bca7b307db667b0fa616e460029",
  "source": "// This file is MIT Licensed.\n//\n// Copyright 2017 Christian Reitwiessner\n// Permission is hereby granted, free of charge, to any person obtaining a copy of this software and associated documentation files (the \"Software\"), to deal in the Software without restriction, including without limitation the rights to use, copy, modify, merge, publish, distribute, sublicense, and/or sell copies of the Software, and to permit persons to whom the Software is furnished to do so, subject to the following conditions:\n// The above copyright notice and this permission notice shall be included in all copies or substantial portions of the Software.\n// THE SOFTWARE IS PROVIDED \"AS IS\", WITHOUT WARRANTY OF ANY KIND, EXPRESS OR IMPLIED, INCLUDING BUT NOT LIMITED TO THE WARRANTIES OF MERCHANTABILITY, FITNESS FOR A PARTICULAR PURPOSE AND NONINFRINGEMENT. IN NO EVENT SHALL THE AUTHORS OR COPYRIGHT HOLDERS BE LIABLE FOR ANY CLAIM, DAMAGES OR OTHER LIABILITY, WHETHER IN AN ACTION OF CONTRACT, TORT OR OTHERWISE, ARISING FROM, OUT OF OR IN CONNECTION WITH THE SOFTWARE OR THE USE OR OTHER DEALINGS IN THE SOFTWARE.\n\npragma solidity ^0.4.24;\n\nimport './Pairing.sol';\n\ncontract Waldo02Verifier {\n    using Pairing for *;\n\n    struct VerifyingKey {\n        Pairing.G2Point A;\n        Pairing.G1Point B;\n        Pairing.G2Point C;\n        Pairing.G2Point gamma;\n        Pairing.G1Point gammaBeta1;\n        Pairing.G2Point gammaBeta2;\n        Pairing.G2Point Z;\n        Pairing.G1Point[] IC;\n    }\n\n    struct Proof {\n        Pairing.G1Point A;\n        Pairing.G1Point A_p;\n        Pairing.G2Point B;\n        Pairing.G1Point B_p;\n        Pairing.G1Point C;\n        Pairing.G1Point C_p;\n        Pairing.G1Point K;\n        Pairing.G1Point H;\n    }\n\n    function verifyingKey() pure internal returns (VerifyingKey vk) {\n        vk.A = Pairing.G2Point([0x1457a49bdde8032ecb4fbcaa01a9bf7a3d2439fab574fbce904545ddae0a3f63, 0x14de6d766e4b87254ad022327f28ea4c33ded5b8192a88898cf37650fd608f18], [0x192c26549c5762e5a1ab56520b066d2e2c01d02d86c867ea89579ae47b7c301d, 0x4502eb193d2be75861a2229f81a2166c45d2c97b56b46040ba090ec5de2c9b1]);\n        vk.B = Pairing.G1Point(0x29e95936e5b23ba11b12110cbc6a79e075945cdd0cf75998ff603c083e9b4b49, 0x1544d5e2f2d4963d132ac4fa0b02f1635e8d61b84b676df3f52f6ab59d087a7b);\n        vk.C = Pairing.G2Point([0x2169a75f7d4247559240559ca86ed8c23ac846856b8ff60d11298cd750b9b783, 0x2f3e1fd2da93e9d266d1e460f17dcd698f90554a2a46ac441b6cffc638e45b69], [0x2b4d4d536a979aa680a58bab1161724da4e4d7e47181d567a9e56f3e9abbba36, 0x19160bf5476e3b2fa631d7a48c1154a4d81dbde02d4ffa3d369c184d2245e6ad]);\n        vk.gamma = Pairing.G2Point([0x1f25410074bcba7fc394ef8ef6af87d4179abd7dcddb61cfeab29f0a07c4789c, 0x146b67298a5e5b2c147d18f423de6d5f7e57349511ecabebb3ac994b112ce1a2], [0x17db69772091f44b07b977702e9411ab2854df1e9a117d5c969cf838fd689970, 0x161565b1ba08c51b7828f64aa3e546311b7a819943f582a229048a1259390bb9]);\n        vk.gammaBeta1 = Pairing.G1Point(0x51c0c15116a8ed4809a363bedaa9ae78faa0f046bd541112cea3eacdbdfc57a, 0x246277b8ad97301ecb4f8dd9e3bbd053d93725155bac07c545f28e34e9482561);\n        vk.gammaBeta2 = Pairing.G2Point([0x205378f41c6f86d71ac21e616898866e8c13e1b62f570108cf6564e0cef2d7d2, 0x6fbb06b1d25ec4ae33a04e60390a336e9327f0a013b433180f50dd3fb90a54c], [0x1b4c7bde4bc824b0354d6ddd76b6905c671da3447b93e3eb733dafee5fefc097, 0xf25be358316d04a9cdae20659c9b41b8754dfe254e6d18713d5b0c2ca5a7b]);\n        vk.Z = Pairing.G2Point([0xd83e0ab2e2b963e0114405a6527d02cbf9c504908703563c4ab84d4517f96cd, 0x9ccf7daf5a6b3086385853f60cfed94da5f4d7762a5931bcc3a043476064639], [0x25aa257db68c724d36a1c26224b9584132f3db0cdeb0010162432266b83cff1e, 0x2aabaf675f57b6d6517265f967f4bd665fa91ec704f08ef0f45e5148c2141764]);\n        vk.IC = new Pairing.G1Point[](6);\n        vk.IC[0] = Pairing.G1Point(0x1a60dd5cdd8ce5a1bd72943d64621e830be132085e52adaac5834d35bb309a54, 0x17ccad4d1a5231a15801b5e8c116893d243e47dd8e982c5a0ebb88c0383d395b);\n        vk.IC[1] = Pairing.G1Point(0x1eca92b396f817c56a18a01212f3c3aa28b2ed28867863db2eb47841d57e4e37, 0x162b45df44bf89223b7e7bc7f4b65eca46c9f70d0aa614b994cee1bb5ba13d82);\n        vk.IC[2] = Pairing.G1Point(0x1544f22986051529aa415a22e1c230f75ce377e435050a8a1bf890dbd4b11ed0, 0x1de3fb24bee09ddc8042ecaf3d493decf93092290077c8d02c4999692a8940e3);\n        vk.IC[3] = Pairing.G1Point(0x1026a0e8a1148f13e845492316702550c69aba63636d077c55a0e795eeb50a4f, 0xf3fb1b309b5f56a68741c5fb15716e8200994917ff4c57cdfde76f66540ac52);\n        vk.IC[4] = Pairing.G1Point(0x1868dcf9a8247ba93c210e642a29e533cb62363a8be2bf863250ef03e18f23b4, 0x5fe4c5208a010fcd62b8d132af2fb17c8150a266c0d6600bfeab43d8380dcfb);\n        vk.IC[5] = Pairing.G1Point(0x44b0dfe65902d113b7d0850fb3759c2823674a21caf1c824df2d8379222a5f5, 0x1fd19e9b0c01763f0cb51c12e0597877e35eb3281e2bcf893be6a02d649fcd1f);\n    }\n\n    function verify(uint[] input, Proof proof) internal returns (uint) {\n        VerifyingKey memory vk = verifyingKey();\n        require(input.length + 1 == vk.IC.length);\n        // Compute the linear combination vk_x\n        Pairing.G1Point memory vk_x = Pairing.G1Point(0, 0);\n        for (uint i = 0; i < input.length; i++)\n            vk_x = Pairing.addition(vk_x, Pairing.scalar_mul(vk.IC[i + 1], input[i]));\n        vk_x = Pairing.addition(vk_x, vk.IC[0]);\n        emit Verified('Start of pairing tests', true);\n        if (!Pairing.pairingProd2(proof.A, vk.A, Pairing.negate(proof.A_p), Pairing.P2())) return 1;\n        emit Verified('Passed first pairing test', true);\n        if (!Pairing.pairingProd2(vk.B, proof.B, Pairing.negate(proof.B_p), Pairing.P2())) return 2;\n        emit Verified('Passed second pairing test', true);\n        if (!Pairing.pairingProd2(proof.C, vk.C, Pairing.negate(proof.C_p), Pairing.P2())) return 3;\n        emit Verified('Passed third pairing test', true);\n        if (!Pairing.pairingProd3(\n            proof.K, vk.gamma,\n            Pairing.negate(Pairing.addition(vk_x, Pairing.addition(proof.A, proof.C))), vk.gammaBeta2,\n            Pairing.negate(vk.gammaBeta1), proof.B\n        )) return 4;\n        emit Verified('Passed fourth pairing test', true);\n        if (!Pairing.pairingProd3(\n            Pairing.addition(vk_x, proof.A), proof.B,\n            Pairing.negate(proof.H), vk.Z,\n            Pairing.negate(proof.C), Pairing.P2()\n        )) return 5;\n        emit Verified('Passed fifth pairing test', true);\n        return 0;\n    }\n\n    event Verified(string message, bool isGood);\n\n    event PrecompiledCall(string message, bool isGood);\n\n    function verifyTx(\n        uint[2] a,\n        uint[2] a_p,\n        uint[2][2] b,\n        uint[2] b_p,\n        uint[2] c,\n        uint[2] c_p,\n        uint[2] h,\n        uint[2] k,\n        uint[5] input\n    ) public {\n        Proof memory proof;\n        proof.A = Pairing.G1Point(a[0], a[1]);\n        proof.A_p = Pairing.G1Point(a_p[0], a_p[1]);\n        proof.B = Pairing.G2Point([b[0][0], b[0][1]], [b[1][0], b[1][1]]);\n        proof.B_p = Pairing.G1Point(b_p[0], b_p[1]);\n        proof.C = Pairing.G1Point(c[0], c[1]);\n        proof.C_p = Pairing.G1Point(c_p[0], c_p[1]);\n        proof.H = Pairing.G1Point(h[0], h[1]);\n        proof.K = Pairing.G1Point(k[0], k[1]);\n        uint[] memory inputValues = new uint[](input.length);\n        for(uint i = 0; i < input.length; i++){\n            inputValues[i] = input[i];\n        }\n        emit Verified(\"Transaction verification begins.\", true);\n        if (verify(inputValues, proof) == 0) {\n            emit Verified(\"Transaction successfully verified.\", true);\n        } else {\n            emit Verified(\"Transaction failed to verify.\", false);\n        }\n    }\n}\n",
  "sourcePath": "/Users/jheinnic/Git/throwdown-proxy/solidity/contracts/Waldo02Verifier.sol",
  "compiler": {
    "name": "solc",
    "version": "0.4.24+commit.e67f0147.Emscripten.clang"
  },
  "schemaVersion": "2.0.1",
  "updatedAt": "2018-06-30T02:00:45.434Z"
}