{
  "contractName": "Wavelets02Verifier",
  "abi": [
    {
      "anonymous": false,
      "inputs": [
        {
          "indexed": false,
          "name": "message",
          "type": "string"
        },
        {
          "indexed": false,
          "name": "isGood",
          "type": "bool"
        }
      ],
      "name": "Verified",
      "type": "event"
    },
    {
      "anonymous": false,
      "inputs": [
        {
          "indexed": false,
          "name": "message",
          "type": "string"
        },
        {
          "indexed": false,
          "name": "isGood",
          "type": "bool"
        }
      ],
      "name": "PrecompiledCall",
      "type": "event"
    },
    {
      "constant": false,
      "inputs": [
        {
          "name": "a",
          "type": "uint256[2]"
        },
        {
          "name": "a_p",
          "type": "uint256[2]"
        },
        {
          "name": "b",
          "type": "uint256[2][2]"
        },
        {
          "name": "b_p",
          "type": "uint256[2]"
        },
        {
          "name": "c",
          "type": "uint256[2]"
        },
        {
          "name": "c_p",
          "type": "uint256[2]"
        },
        {
          "name": "h",
          "type": "uint256[2]"
        },
        {
          "name": "k",
          "type": "uint256[2]"
        },
        {
          "name": "input",
          "type": "uint256[7]"
        }
      ],
      "name": "verifyTx",
      "outputs": [],
      "payable": false,
      "stateMutability": "nonpayable",
      "type": "function"
    }
  ],
  "bytecode": "0x608060405234801561001057600080fd5b506118d9806100206000396000f3006080604052600436106100405763ffffffff7c01000000000000000000000000000000000000000000000000000000006000350416631cdf13578114610045575b600080fd5b34801561005157600080fd5b506040805180820182526101d69136916004916044919083906002908390839080828437505060408051808201825294979695818101959450925060029150839083908082843750506040805180820190915293969594608081019493509150600290506000835b828210156100f25760408051808201825290808402860190600290839083908082843750505091835250506001909101906020016100b9565b50506040805180820182529396959481810194935091506002908390839080828437505060408051808201825294979695818101959450925060029150839083908082843750506040805180820182529497969581810195945092506002915083908390808284375050604080518082018252949796958181019594509250600291508390839080828437505060408051808201825294979695818101959450925060029150839083908082843750506040805160e0818101909252949796958181019594509250600791508390839080828437509396506101d895505050505050565b005b6101e06116f8565b6040805180820182528b5181526020808d015181830152908352815180830183528b5181528b82015181830152838201528151608080820184528b51518285019081528c51840151606080850191909152908352845180860186528d8501805151825251850151818601528385015285850192909252835180850185528b5181528b8401518185015282860152835180850185528a5181528a84015181850152908501528251808401845288518152888301518184015260a08501528251808401845287518152878301518184015260e0808601919091528351808501855287518152878401518185015260c0860152835160078082526101008201909552919360009390919083019080388339019050509150600090505b60078110156103335783816007811061030e57fe5b6020020151828281518110151561032157fe5b602090810290910101526001016102f9565b604080516001602080830191909152828252818301527f5472616e73616374696f6e20766572696669636174696f6e20626567696e732e6060820152905160008051602061188e8339815191529181900360800190a1610393828461047d565b15156104185760408051600160208201528181526022818301527f5472616e73616374696f6e207375636365737366756c6c79207665726966696560608201527f642e0000000000000000000000000000000000000000000000000000000000006080820152905160008051602061188e8339815191529181900360a00190a161046f565b604080516000602080830191909152828252818301527f5472616e73616374696f6e206661696c656420766572696669636174696f6e2e6060820152905160008051602061188e8339815191529181900360800190a15b505050505050505050505050565b600061048761176d565b61048f6117dd565b6000610499610885565b92508260e001515186516001011415156104b257600080fd5b5050604080518082019091526000808252602082018190525b85518110156105265761051c826105178560e00151846001018151811015156104f057fe5b90602001906020020151898581518110151561050857fe5b9060200190602002015161107b565b6110f9565b91506001016104cb565b61054c828460e00151600081518110151561053d57fe5b906020019060200201516110f9565b60408051600160208201528181526016818301527f5374617274206f662070616972696e67207465737473000000000000000000006060820152905191935060008051602061188e833981519152919081900360800190a16105cb856000015184600001516105be886020015161116d565b6105c66111fa565b6112ba565b15156105da576001935061087c565b60408051600160208201528181526019818301527f5061737365642066697273742070616972696e672074657374000000000000006060820152905160008051602061188e8339815191529181900360800190a1610648836020015186604001516105be886060015161116d565b1515610657576002935061087c565b6040805160016020820152818152601a818301527f506173736564207365636f6e642070616972696e6720746573740000000000006060820152905160008051602061188e8339815191529181900360800190a16106c5856080015184604001516105be8860a0015161116d565b15156106d4576003935061087c565b60408051600160208201528181526019818301527f5061737365642074686972642070616972696e672074657374000000000000006060820152905160008051602061188e8339815191529181900360800190a161076f8560c00151846060015161075361074e866105178b600001518c608001516110f9565b61116d565b8660a00151610765886080015161116d565b8a604001516113a5565b151561077e576004935061087c565b6040805160016020820152818152601a818301527f50617373656420666f757274682070616972696e6720746573740000000000006060820152905160008051602061188e8339815191529181900360800190a16108146107e38387600001516110f9565b86604001516107f58860e0015161116d565b8660c001516108078a6080015161116d565b61080f6111fa565b6113a5565b1515610823576005935061087c565b60408051600160208201528181526019818301527f5061737365642066696674682070616972696e672074657374000000000000006060820152905160008051602061188e8339815191529181900360800190a1600093505b50505092915050565b61088d61176d565b60408051608080820183527f122ce0f151e5319910fa593af23341ee5ef09a69b999ece1d6adf1dd642645db8284019081527f0ea4834deced75532da5d32330332d28878a2cfd3efb8f0b669f3deffecfeacc606080850191909152908352835180850185527f2c2433d48d08e92e67d8b17354d2f86db0508e6ff7bb5d6309dff7fde536f10381527f03a05e7db062b6060ab89ae5c9a1a4e902f2a2f83d7898319444c7fd8acb130c60208083019190915280850191909152928552835180850185527f2f843bd6d1688f33414f520f44c822d6034ed471562f171d25fa99a60912b3b381527f150b6b30fc0883dae621e9c56d17a603dd493479d7a119a63ced23efc0bb19888185015285840152835180830185527f2bd1f66971068034dfb02b689d19b6060fee86bdd233cb3830d086a54c872ca58186019081527f17ed5220edfc660a7affbc64ee0b7be9d80c13cfd01afebf2435125ecb2e57b8828401528152845180860186527f2a3c85653d0edf4894ab45b094aaf8be2062bae3b66ae88d17204043b0e9ce9181527f2ed5d9f103836762a2e5508517d5e6ba9d978614c474382cf2e1b67e89e1ffc6818601528185015285850152835180830185527f1455fc4d42d702c99c4d984c55af89baae79324eed13070dcc987804c4d989e98186019081527f1658651f6a8ede8b53f1dde35a1ae6cad5daf56fe68f02b59f0135ff2647ca9d828401528152845180860186527e87f759feaa99b6c534bc617129cad9eb896a82b7d392d084df4a36eb78759181527f125bd9448303cf1b5b028c095c2113c39b4cd358da78a36ba26e206b252af001818601528185015285820152835180850185527f0f9b217e3fcc6fcb213744316ee9be6041f22fdaa4cd2ddd5fb20bdaa196999e81527f1507d9d2c03be771e489b62f7fb22dce692dc630af6a9f1916cfe0581e40d0c78185015285830152835180830185527f073dccbeb282171bf60a9891217ad09dcb1db99de24a52c2a9edf10f9544ae878186019081527f2af34871ac8f7b7b7fc71145771ff882f44ee7a4c067ddab7e9e9e63ac34dd95828401528152845180860186527f032a2e44db246f9ca150168f2b56ac106cfb9ba941f267b7a1f24a457dd737f581527f28da1b4e0d5f0840fa7aa81f65bb38e02bb84f96c294d3320d5ce27dc4739c5f818601528185015260a0860152835191820184527f094826f1a87cbc09da932c852e0fc395fa05ad3c7cdd7e37b3d55079769c9eab8285019081527f17bb7cdbea4f6d72fa6ebfd97e901ecdf5f29fb6eade5fd3e22c33e6e7234879918301919091528152825180840184527f1a5ac027b4d678e0b0cc03ea0ea26a1c235478db005baad6bc0d9bc289fe09c681527f1f24c083f5ec8095410a2a40a958891609472f1ea360e87eb8ad63292b511fa9818401528183015260c0840152815160088082526101208201909352919082015b610cc06117dd565b815260200190600190039081610cb857505060e08201908152604080518082019091527f03b281abfdd3279d1661368ba801e80838867b1864a26f1cf53b7a99f77df04e81527f134e55392bfc14e073a6f46ad73c67a59d99e0af09dcf0e0fe44a2f6d17dbb416020820152905180516000908110610d3b57fe5b9060200190602002018190525060408051908101604052807f23d0565b5da4833cf68456a897f743f66ebbca5301aab397493478be3a1f9cdb81526020017f29e15b1f69f0987298c6ee84b5c18309ee2e6da2baec9e111ad648f1f6e81bb58152508160e001516001815181101515610db057fe5b9060200190602002018190525060408051908101604052807f0824c77a271ee741888c427c389e468dbfebbc75dd80a1b9d24988168c02d8a181526020017f08cb0331d454c7e114cae734e1d152bd7f625f2b57b064deca9db0fc8a4126e28152508160e001516002815181101515610e2557fe5b9060200190602002018190525060408051908101604052807f20577d395445972ca5514517e963c84439a280abcbc2925a2d181bb1a2acfbc881526020017f112087464d0247d4f9849b06a92749179495c08984c3844bd363189713f7f0678152508160e001516003815181101515610e9a57fe5b9060200190602002018190525060408051908101604052807f278189e91d5fd74c671d9c417ca9217d18709a12a920d9dbef56372a3aed1c1681526020017f26e8ca5fd79e765eb3fd461cdc75b304353a70a49245d9ab44bd984faa0039008152508160e001516004815181101515610f0f57fe5b9060200190602002018190525060408051908101604052807f0d024082ab52e4f92d1b1a1d71cf861dbd51d785a29d3e76137374dfd1f2ff1881526020017f0121931b611b7abf44dcdb01b8be49e88fec589b3a9566ca5e406e0de54518818152508160e001516005815181101515610f8457fe5b9060200190602002018190525060408051908101604052807f2401f71214a2b2edc5b138fe18e8ed8295a98620124fa27df84c7326072e096e81526020017f1e9f9a041cd854771fcf0599663fd7e560e77b8027555391f2402ec99614e0488152508160e001516006815181101515610ff957fe5b9060200190602002018190525060408051908101604052807f2829848f39a38b34f8c77a44c454bd00f0a8f25a2ded763f3fca4bf27460b8b381526020017f24896d3af2dae657e0639052b902ce45d32b94d7d142af8a217105feefe32c5c8152508160e00151600781518110151561106e57fe5b6020908102909101015290565b6110836117dd565b61108b6117f4565b83518152602080850151908201526040810183905260006060836080848460076107d05a03f190508080156110bf576110e4565b60207f4661696c6564207363616c61725f6d756c7420286f703d372900000000000000fd5b508015156110f157600080fd5b505092915050565b6111016117dd565b611109611813565b8351815260208085015181830152835160408301528301516060808301919091526000908360c0848460066107d05a03f19050808015611148576110e4565b60207f4661696c6564206164646974696f6e20286f703d362900000000000000000000fd5b6111756117dd565b81517f30644e72e131a029b85045b68181585d97816a916871ca8d3c208c16d87cfd47901580156111a857506020830151155b156111c857604080518082019091526000808252602082015291506111f4565b6040805190810160405280846000015181526020018285602001518115156111ec57fe5b068303905291505b50919050565b611202611832565b50604080516080810182527f198e9393920d483a7260bfb731fb5d25f1aa493335a9e71297e485b7aef312c28183019081527f1800deef121f1e76426a00665e5c4479674322d4f75edadd46debd5cd992f6ed6060830152815281518083019092527f090689d0585ff075ec9e99ad690c3395bc4b313370b38ef355acdadcd122975b82527f12c85ea5db8c6deb4aab71808dcb408fe3d1e7690c43d37b4ce6cc0166fa7daa60208381019190915281019190915290565b6040805160028082526060828101909352600092918291816020015b6112de6117dd565b8152602001906001900390816112d657505060408051600280825260608201909252919350602082015b611310611832565b8152602001906001900390816113085790505090508682600081518110151561133557fe5b60209081029091010152815185908390600190811061135057fe5b60209081029091010152805186908290600090811061136b57fe5b60209081029091010152805184908290600190811061138657fe5b6020908102909101015261139a82826114c9565b979650505050505050565b604080516003808252608082019092526000916060918291816020015b6113ca6117dd565b8152602001906001900390816113c257505060408051600380825260808201909252919350602082015b6113fc611832565b8152602001906001900390816113f45790505090508882600081518110151561142157fe5b60209081029091010152815187908390600190811061143c57fe5b60209081029091010152815185908390600290811061145757fe5b60209081029091010152805188908290600090811061147257fe5b60209081029091010152805186908290600190811061148d57fe5b6020908102909101015280518490829060029081106114a857fe5b602090810290910101526114bc82826114c9565b9998505050505050505050565b6000806000606060006114da611853565b86518851600091146114eb57600080fd5b885195508560060294508460405190808252806020026020018201604052801561151f578160200160208202803883390190505b509350600092505b8583101561169457888381518110151561153d57fe5b6020908102909101015151845185906006860290811061155957fe5b60209081029091010152885189908490811061157157fe5b9060200190602002015160200151848460060260010181518110151561159357fe5b6020908102909101015287518890849081106115ab57fe5b6020908102919091010151515184518590600260068702019081106115cc57fe5b6020908102909101015287518890849081106115e457fe5b602090810291909101810151510151845185906003600687020190811061160757fe5b60209081029091010152875188908490811061161f57fe5b602090810291909101810151015151845185906004600687020190811061164257fe5b60209081029091010152875188908490811061165a57fe5b6020908102919091018101518101510151845185906005600687020190811061167f57fe5b60209081029091010152600190920191611527565b6020826020870260208701600060086107d05a03f190508080156116b7576116dc565b60207f4661696c65642070616972696e6720286f703d38290000000000000000000000fd5b508015156116e957600080fd5b50511515979650505050505050565b6102406040519081016040528061170d6117dd565b815260200161171a6117dd565b8152602001611727611832565b81526020016117346117dd565b81526020016117416117dd565b815260200161174e6117dd565b815260200161175b6117dd565b81526020016117686117dd565b905290565b61032060405190810160405280611782611832565b815260200161178f6117dd565b815260200161179c611832565b81526020016117a9611832565b81526020016117b66117dd565b81526020016117c3611832565b81526020016117d0611832565b8152602001606081525090565b604080518082019091526000808252602082015290565b6060604051908101604052806003906020820280388339509192915050565b6080604051908101604052806004906020820280388339509192915050565b608060405190810160405280611846611872565b8152602001611768611872565b6020604051908101604052806001906020820280388339509192915050565b604080518082018252906002908290803883395091929150505600e3da507c4ec77b305a5326dcb98b6cb466b555315d203e613deee09aa3701f1ba165627a7a723058207b8d8d68e7e84937f3f4f096517ddd842a05db3503c0490abc9ce954dfc020430029",
  "source": "// This file is MIT Licensed.\n//\n// Copyright 2017 Christian Reitwiessner\n// Permission is hereby granted, free of charge, to any person obtaining a copy of this software and associated documentation files (the \"Software\"), to deal in the Software without restriction, including without limitation the rights to use, copy, modify, merge, publish, distribute, sublicense, and/or sell copies of the Software, and to permit persons to whom the Software is furnished to do so, subject to the following conditions:\n// The above copyright notice and this permission notice shall be included in all copies or substantial portions of the Software.\n// THE SOFTWARE IS PROVIDED \"AS IS\", WITHOUT WARRANTY OF ANY KIND, EXPRESS OR IMPLIED, INCLUDING BUT NOT LIMITED TO THE WARRANTIES OF MERCHANTABILITY, FITNESS FOR A PARTICULAR PURPOSE AND NONINFRINGEMENT. IN NO EVENT SHALL THE AUTHORS OR COPYRIGHT HOLDERS BE LIABLE FOR ANY CLAIM, DAMAGES OR OTHER LIABILITY, WHETHER IN AN ACTION OF CONTRACT, TORT OR OTHERWISE, ARISING FROM, OUT OF OR IN CONNECTION WITH THE SOFTWARE OR THE USE OR OTHER DEALINGS IN THE SOFTWARE.\n\npragma solidity ^0.4.24;\n\nimport './Pairing.sol';\n\ncontract Wavelets02Verifier {\n    using Pairing for *;\n\n    struct VerifyingKey {\n        Pairing.G2Point A;\n        Pairing.G1Point B;\n        Pairing.G2Point C;\n        Pairing.G2Point gamma;\n        Pairing.G1Point gammaBeta1;\n        Pairing.G2Point gammaBeta2;\n        Pairing.G2Point Z;\n        Pairing.G1Point[] IC;\n    }\n\n    struct Proof {\n        Pairing.G1Point A;\n        Pairing.G1Point A_p;\n        Pairing.G2Point B;\n        Pairing.G1Point B_p;\n        Pairing.G1Point C;\n        Pairing.G1Point C_p;\n        Pairing.G1Point K;\n        Pairing.G1Point H;\n    }\n\n    function verifyingKey() pure internal returns (VerifyingKey vk) {\n        vk.A = Pairing.G2Point([0x122ce0f151e5319910fa593af23341ee5ef09a69b999ece1d6adf1dd642645db, 0xea4834deced75532da5d32330332d28878a2cfd3efb8f0b669f3deffecfeacc], [0x2c2433d48d08e92e67d8b17354d2f86db0508e6ff7bb5d6309dff7fde536f103, 0x3a05e7db062b6060ab89ae5c9a1a4e902f2a2f83d7898319444c7fd8acb130c]);\n        vk.B = Pairing.G1Point(0x2f843bd6d1688f33414f520f44c822d6034ed471562f171d25fa99a60912b3b3, 0x150b6b30fc0883dae621e9c56d17a603dd493479d7a119a63ced23efc0bb1988);\n        vk.C = Pairing.G2Point([0x2bd1f66971068034dfb02b689d19b6060fee86bdd233cb3830d086a54c872ca5, 0x17ed5220edfc660a7affbc64ee0b7be9d80c13cfd01afebf2435125ecb2e57b8], [0x2a3c85653d0edf4894ab45b094aaf8be2062bae3b66ae88d17204043b0e9ce91, 0x2ed5d9f103836762a2e5508517d5e6ba9d978614c474382cf2e1b67e89e1ffc6]);\n        vk.gamma = Pairing.G2Point([0x1455fc4d42d702c99c4d984c55af89baae79324eed13070dcc987804c4d989e9, 0x1658651f6a8ede8b53f1dde35a1ae6cad5daf56fe68f02b59f0135ff2647ca9d], [0x87f759feaa99b6c534bc617129cad9eb896a82b7d392d084df4a36eb787591, 0x125bd9448303cf1b5b028c095c2113c39b4cd358da78a36ba26e206b252af001]);\n        vk.gammaBeta1 = Pairing.G1Point(0xf9b217e3fcc6fcb213744316ee9be6041f22fdaa4cd2ddd5fb20bdaa196999e, 0x1507d9d2c03be771e489b62f7fb22dce692dc630af6a9f1916cfe0581e40d0c7);\n        vk.gammaBeta2 = Pairing.G2Point([0x73dccbeb282171bf60a9891217ad09dcb1db99de24a52c2a9edf10f9544ae87, 0x2af34871ac8f7b7b7fc71145771ff882f44ee7a4c067ddab7e9e9e63ac34dd95], [0x32a2e44db246f9ca150168f2b56ac106cfb9ba941f267b7a1f24a457dd737f5, 0x28da1b4e0d5f0840fa7aa81f65bb38e02bb84f96c294d3320d5ce27dc4739c5f]);\n        vk.Z = Pairing.G2Point([0x94826f1a87cbc09da932c852e0fc395fa05ad3c7cdd7e37b3d55079769c9eab, 0x17bb7cdbea4f6d72fa6ebfd97e901ecdf5f29fb6eade5fd3e22c33e6e7234879], [0x1a5ac027b4d678e0b0cc03ea0ea26a1c235478db005baad6bc0d9bc289fe09c6, 0x1f24c083f5ec8095410a2a40a958891609472f1ea360e87eb8ad63292b511fa9]);\n        vk.IC = new Pairing.G1Point[](8);\n        vk.IC[0] = Pairing.G1Point(0x3b281abfdd3279d1661368ba801e80838867b1864a26f1cf53b7a99f77df04e, 0x134e55392bfc14e073a6f46ad73c67a59d99e0af09dcf0e0fe44a2f6d17dbb41);\n        vk.IC[1] = Pairing.G1Point(0x23d0565b5da4833cf68456a897f743f66ebbca5301aab397493478be3a1f9cdb, 0x29e15b1f69f0987298c6ee84b5c18309ee2e6da2baec9e111ad648f1f6e81bb5);\n        vk.IC[2] = Pairing.G1Point(0x824c77a271ee741888c427c389e468dbfebbc75dd80a1b9d24988168c02d8a1, 0x8cb0331d454c7e114cae734e1d152bd7f625f2b57b064deca9db0fc8a4126e2);\n        vk.IC[3] = Pairing.G1Point(0x20577d395445972ca5514517e963c84439a280abcbc2925a2d181bb1a2acfbc8, 0x112087464d0247d4f9849b06a92749179495c08984c3844bd363189713f7f067);\n        vk.IC[4] = Pairing.G1Point(0x278189e91d5fd74c671d9c417ca9217d18709a12a920d9dbef56372a3aed1c16, 0x26e8ca5fd79e765eb3fd461cdc75b304353a70a49245d9ab44bd984faa003900);\n        vk.IC[5] = Pairing.G1Point(0xd024082ab52e4f92d1b1a1d71cf861dbd51d785a29d3e76137374dfd1f2ff18, 0x121931b611b7abf44dcdb01b8be49e88fec589b3a9566ca5e406e0de5451881);\n        vk.IC[6] = Pairing.G1Point(0x2401f71214a2b2edc5b138fe18e8ed8295a98620124fa27df84c7326072e096e, 0x1e9f9a041cd854771fcf0599663fd7e560e77b8027555391f2402ec99614e048);\n        vk.IC[7] = Pairing.G1Point(0x2829848f39a38b34f8c77a44c454bd00f0a8f25a2ded763f3fca4bf27460b8b3, 0x24896d3af2dae657e0639052b902ce45d32b94d7d142af8a217105feefe32c5c);\n    }\n\n    function verify(uint[] input, Proof proof) internal returns (uint) {\n        VerifyingKey memory vk = verifyingKey();\n        require(input.length + 1 == vk.IC.length);\n        // Compute the linear combination vk_x\n        Pairing.G1Point memory vk_x = Pairing.G1Point(0, 0);\n        for (uint i = 0; i < input.length; i++)\n            vk_x = Pairing.addition(vk_x, Pairing.scalar_mul(vk.IC[i + 1], input[i]));\n        vk_x = Pairing.addition(vk_x, vk.IC[0]);\n        emit Verified('Start of pairing tests', true);\n        if (!Pairing.pairingProd2(proof.A, vk.A, Pairing.negate(proof.A_p), Pairing.P2())) return 1;\n        emit Verified('Passed first pairing test', true);\n        if (!Pairing.pairingProd2(vk.B, proof.B, Pairing.negate(proof.B_p), Pairing.P2())) return 2;\n        emit Verified('Passed second pairing test', true);\n        if (!Pairing.pairingProd2(proof.C, vk.C, Pairing.negate(proof.C_p), Pairing.P2())) return 3;\n        emit Verified('Passed third pairing test', true);\n        if (!Pairing.pairingProd3(\n            proof.K, vk.gamma,\n            Pairing.negate(Pairing.addition(vk_x, Pairing.addition(proof.A, proof.C))), vk.gammaBeta2,\n            Pairing.negate(vk.gammaBeta1), proof.B\n        )) return 4;\n        emit Verified('Passed fourth pairing test', true);\n        if (!Pairing.pairingProd3(\n                Pairing.addition(vk_x, proof.A), proof.B,\n                Pairing.negate(proof.H), vk.Z,\n                Pairing.negate(proof.C), Pairing.P2()\n        )) return 5;\n        emit Verified('Passed fifth pairing test', true);\n        return 0;\n    }\n\n    event Verified(string message, bool isGood);\n\n    event PrecompiledCall(string message, bool isGood);\n\n    function verifyTx(\n            uint[2] a,\n            uint[2] a_p,\n            uint[2][2] b,\n            uint[2] b_p,\n            uint[2] c,\n            uint[2] c_p,\n            uint[2] h,\n            uint[2] k,\n            uint[7] input\n        ) public {\n        Proof memory proof;\n        proof.A = Pairing.G1Point(a[0], a[1]);\n        proof.A_p = Pairing.G1Point(a_p[0], a_p[1]);\n        proof.B = Pairing.G2Point([b[0][0], b[0][1]], [b[1][0], b[1][1]]);\n        proof.B_p = Pairing.G1Point(b_p[0], b_p[1]);\n        proof.C = Pairing.G1Point(c[0], c[1]);\n        proof.C_p = Pairing.G1Point(c_p[0], c_p[1]);\n        proof.H = Pairing.G1Point(h[0], h[1]);\n        proof.K = Pairing.G1Point(k[0], k[1]);\n        uint[] memory inputValues = new uint[](input.length);\n        for(uint i = 0; i < input.length; i++){\n            inputValues[i] = input[i];\n        }\n        emit Verified(\"Transaction verification begins.\", true);\n        if (verify(inputValues, proof) == 0) {\n            emit Verified(\"Transaction successfully verified.\", true);\n        } else {\n            emit Verified(\"Transaction failed verification.\", false);\n        }\n    }\n}\n",
  "sourcePath": "/Users/jheinnic/Git/throwdown-proxy/solidity/contracts/Wavelets02Verifier.sol",
  "compiler": {
    "name": "solc",
    "version": "0.4.24+commit.e67f0147.Emscripten.clang"
  },
  "schemaVersion": "2.0.1",
  "updatedAt": "2018-07-02T20:59:32.350Z"
}