{
  "contractName": "GradientToken",
  "abi": [
    {
      "constant": true,
      "inputs": [],
      "name": "name",
      "outputs": [
        {
          "name": "",
          "type": "string"
        }
      ],
      "payable": false,
      "stateMutability": "view",
      "type": "function"
    },
    {
      "constant": true,
      "inputs": [
        {
          "name": "_tokenId",
          "type": "uint256"
        }
      ],
      "name": "getApproved",
      "outputs": [
        {
          "name": "",
          "type": "address"
        }
      ],
      "payable": false,
      "stateMutability": "view",
      "type": "function"
    },
    {
      "constant": false,
      "inputs": [
        {
          "name": "_to",
          "type": "address"
        },
        {
          "name": "_tokenId",
          "type": "uint256"
        }
      ],
      "name": "approve",
      "outputs": [],
      "payable": false,
      "stateMutability": "nonpayable",
      "type": "function"
    },
    {
      "constant": true,
      "inputs": [],
      "name": "totalSupply",
      "outputs": [
        {
          "name": "",
          "type": "uint256"
        }
      ],
      "payable": false,
      "stateMutability": "view",
      "type": "function"
    },
    {
      "constant": false,
      "inputs": [
        {
          "name": "_from",
          "type": "address"
        },
        {
          "name": "_to",
          "type": "address"
        },
        {
          "name": "_tokenId",
          "type": "uint256"
        }
      ],
      "name": "transferFrom",
      "outputs": [],
      "payable": false,
      "stateMutability": "nonpayable",
      "type": "function"
    },
    {
      "constant": true,
      "inputs": [
        {
          "name": "_owner",
          "type": "address"
        },
        {
          "name": "_index",
          "type": "uint256"
        }
      ],
      "name": "tokenOfOwnerByIndex",
      "outputs": [
        {
          "name": "",
          "type": "uint256"
        }
      ],
      "payable": false,
      "stateMutability": "view",
      "type": "function"
    },
    {
      "constant": false,
      "inputs": [
        {
          "name": "_from",
          "type": "address"
        },
        {
          "name": "_to",
          "type": "address"
        },
        {
          "name": "_tokenId",
          "type": "uint256"
        }
      ],
      "name": "safeTransferFrom",
      "outputs": [],
      "payable": false,
      "stateMutability": "nonpayable",
      "type": "function"
    },
    {
      "constant": true,
      "inputs": [
        {
          "name": "_tokenId",
          "type": "uint256"
        }
      ],
      "name": "exists",
      "outputs": [
        {
          "name": "",
          "type": "bool"
        }
      ],
      "payable": false,
      "stateMutability": "view",
      "type": "function"
    },
    {
      "constant": true,
      "inputs": [
        {
          "name": "_index",
          "type": "uint256"
        }
      ],
      "name": "tokenByIndex",
      "outputs": [
        {
          "name": "",
          "type": "uint256"
        }
      ],
      "payable": false,
      "stateMutability": "view",
      "type": "function"
    },
    {
      "constant": true,
      "inputs": [
        {
          "name": "_tokenId",
          "type": "uint256"
        }
      ],
      "name": "ownerOf",
      "outputs": [
        {
          "name": "",
          "type": "address"
        }
      ],
      "payable": false,
      "stateMutability": "view",
      "type": "function"
    },
    {
      "constant": true,
      "inputs": [
        {
          "name": "_owner",
          "type": "address"
        }
      ],
      "name": "balanceOf",
      "outputs": [
        {
          "name": "",
          "type": "uint256"
        }
      ],
      "payable": false,
      "stateMutability": "view",
      "type": "function"
    },
    {
      "constant": true,
      "inputs": [],
      "name": "owner",
      "outputs": [
        {
          "name": "",
          "type": "address"
        }
      ],
      "payable": false,
      "stateMutability": "view",
      "type": "function"
    },
    {
      "constant": true,
      "inputs": [],
      "name": "symbol",
      "outputs": [
        {
          "name": "",
          "type": "string"
        }
      ],
      "payable": false,
      "stateMutability": "view",
      "type": "function"
    },
    {
      "constant": false,
      "inputs": [
        {
          "name": "_to",
          "type": "address"
        },
        {
          "name": "_approved",
          "type": "bool"
        }
      ],
      "name": "setApprovalForAll",
      "outputs": [],
      "payable": false,
      "stateMutability": "nonpayable",
      "type": "function"
    },
    {
      "constant": false,
      "inputs": [
        {
          "name": "_from",
          "type": "address"
        },
        {
          "name": "_to",
          "type": "address"
        },
        {
          "name": "_tokenId",
          "type": "uint256"
        },
        {
          "name": "_data",
          "type": "bytes"
        }
      ],
      "name": "safeTransferFrom",
      "outputs": [],
      "payable": false,
      "stateMutability": "nonpayable",
      "type": "function"
    },
    {
      "constant": true,
      "inputs": [
        {
          "name": "_tokenId",
          "type": "uint256"
        }
      ],
      "name": "tokenURI",
      "outputs": [
        {
          "name": "",
          "type": "string"
        }
      ],
      "payable": false,
      "stateMutability": "view",
      "type": "function"
    },
    {
      "constant": true,
      "inputs": [
        {
          "name": "_owner",
          "type": "address"
        },
        {
          "name": "_operator",
          "type": "address"
        }
      ],
      "name": "isApprovedForAll",
      "outputs": [
        {
          "name": "",
          "type": "bool"
        }
      ],
      "payable": false,
      "stateMutability": "view",
      "type": "function"
    },
    {
      "constant": false,
      "inputs": [
        {
          "name": "newOwner",
          "type": "address"
        }
      ],
      "name": "transferOwnership",
      "outputs": [],
      "payable": false,
      "stateMutability": "nonpayable",
      "type": "function"
    },
    {
      "anonymous": false,
      "inputs": [
        {
          "indexed": true,
          "name": "previousOwner",
          "type": "address"
        },
        {
          "indexed": true,
          "name": "newOwner",
          "type": "address"
        }
      ],
      "name": "OwnershipTransferred",
      "type": "event"
    },
    {
      "anonymous": false,
      "inputs": [
        {
          "indexed": true,
          "name": "_from",
          "type": "address"
        },
        {
          "indexed": true,
          "name": "_to",
          "type": "address"
        },
        {
          "indexed": false,
          "name": "_tokenId",
          "type": "uint256"
        }
      ],
      "name": "Transfer",
      "type": "event"
    },
    {
      "anonymous": false,
      "inputs": [
        {
          "indexed": true,
          "name": "_owner",
          "type": "address"
        },
        {
          "indexed": true,
          "name": "_approved",
          "type": "address"
        },
        {
          "indexed": false,
          "name": "_tokenId",
          "type": "uint256"
        }
      ],
      "name": "Approval",
      "type": "event"
    },
    {
      "anonymous": false,
      "inputs": [
        {
          "indexed": true,
          "name": "_owner",
          "type": "address"
        },
        {
          "indexed": true,
          "name": "_operator",
          "type": "address"
        },
        {
          "indexed": false,
          "name": "_approved",
          "type": "bool"
        }
      ],
      "name": "ApprovalForAll",
      "type": "event"
    },
    {
      "constant": false,
      "inputs": [
        {
          "name": "_outer",
          "type": "string"
        },
        {
          "name": "_inner",
          "type": "string"
        }
      ],
      "name": "mint",
      "outputs": [],
      "payable": false,
      "stateMutability": "nonpayable",
      "type": "function"
    },
    {
      "constant": true,
      "inputs": [
        {
          "name": "_gradientId",
          "type": "uint256"
        }
      ],
      "name": "getGradient",
      "outputs": [
        {
          "name": "outer",
          "type": "string"
        },
        {
          "name": "inner",
          "type": "string"
        }
      ],
      "payable": false,
      "stateMutability": "view",
      "type": "function"
    }
  ],
  "bytecode": "0x600d60808181527f4772616469656e74546f6b656e0000000000000000000000000000000000000060a0908152610100604052600460c08181527f475241440000000000000000000000000000000000000000000000000000000060e05292936200006b92906200009c565b508051620000819060059060208401906200009c565b5050600b8054600160a060020a031916331790555062000141565b828054600181600116156101000203166002900490600052602060002090601f016020900481019282601f10620000df57805160ff19168380011785556200010f565b828001600101855582156200010f579182015b828111156200010f578251825591602001919060010190620000f2565b506200011d92915062000121565b5090565b6200013e91905b808211156200011d576000815560010162000128565b90565b61153680620001516000396000f3006080604052600436106101115763ffffffff7c010000000000000000000000000000000000000000000000000000000060003504166306fdde038114610116578063081812fc146101a0578063095ea7b3146101d457806318160ddd146101fa57806323b872dd146102215780632f745c591461024b57806342842e0e1461026f5780634f558e79146102995780634f6ccce7146102c55780636352211e146102dd57806370a08231146102f55780638aa0fdad146103165780638da5cb5b146103ad57806395d89b41146103c2578063a22cb465146103d7578063b88d4fde146103fd578063c87b56dd1461046c578063d927f09e14610484578063e985e9c51461057a578063f2fde38b146105a1575b600080fd5b34801561012257600080fd5b5061012b6105c2565b6040805160208082528351818301528351919283929083019185019080838360005b8381101561016557818101518382015260200161014d565b50505050905090810190601f1680156101925780820380516001836020036101000a031916815260200191505b509250505060405180910390f35b3480156101ac57600080fd5b506101b8600435610659565b60408051600160a060020a039092168252519081900360200190f35b3480156101e057600080fd5b506101f8600160a060020a0360043516602435610674565b005b34801561020657600080fd5b5061020f610766565b60408051918252519081900360200190f35b34801561022d57600080fd5b506101f8600160a060020a036004358116906024351660443561076c565b34801561025757600080fd5b5061020f600160a060020a036004351660243561081b565b34801561027b57600080fd5b506101f8600160a060020a0360043581169060243516604435610868565b3480156102a557600080fd5b506102b16004356108a0565b604080519115158252519081900360200190f35b3480156102d157600080fd5b5061020f6004356108bd565b3480156102e957600080fd5b506101b86004356108f2565b34801561030157600080fd5b5061020f600160a060020a036004351661091c565b34801561032257600080fd5b506040805160206004803580820135601f81018490048402850184019095528484526101f894369492936024939284019190819084018382808284375050604080516020601f89358b018035918201839004830284018301909452808352979a99988101979196509182019450925082915084018382808284375094975061094f9650505050505050565b3480156103b957600080fd5b506101b8610a03565b3480156103ce57600080fd5b5061012b610a12565b3480156103e357600080fd5b506101f8600160a060020a03600435166024351515610a73565b34801561040957600080fd5b50604080516020601f6064356004818101359283018490048402850184019095528184526101f894600160a060020a038135811695602480359092169560443595369560849401918190840183828082843750949750610af79650505050505050565b34801561047857600080fd5b5061012b600435610b36565b34801561049057600080fd5b5061049c600435610beb565b604051808060200180602001838103835285818151815260200191508051906020019080838360005b838110156104dd5781810151838201526020016104c5565b50505050905090810190601f16801561050a5780820380516001836020036101000a031916815260200191505b50838103825284518152845160209182019186019080838360005b8381101561053d578181015183820152602001610525565b50505050905090810190601f16801561056a5780820380516001836020036101000a031916815260200191505b5094505050505060405180910390f35b34801561058657600080fd5b506102b1600160a060020a0360043581169060243516610d62565b3480156105ad57600080fd5b506101f8600160a060020a0360043516610d90565b60048054604080516020601f600260001961010060018816150201909516949094049384018190048102820181019092528281526060939092909183018282801561064e5780601f106106235761010080835404028352916020019161064e565b820191906000526020600020905b81548152906001019060200180831161063157829003601f168201915b505050505090505b90565b600090815260016020526040902054600160a060020a031690565b600061067f826108f2565b9050600160a060020a03838116908216141561069a57600080fd5b33600160a060020a03821614806106b657506106b68133610d62565b15156106c157600080fd5b60006106cc83610659565b600160a060020a03161415806106ea5750600160a060020a03831615155b1561076157600082815260016020908152604091829020805473ffffffffffffffffffffffffffffffffffffffff1916600160a060020a03878116918217909255835186815293519093918516927f8c5be1e5ebec7d5bd14f71427d1e84f3dd0314c0f7b2291e5b200ac8c7c3b925928290030190a35b505050565b60085490565b806107773382610e25565b151561078257600080fd5b600160a060020a038416151561079757600080fd5b600160a060020a03831615156107ac57600080fd5b6107b68483610e84565b6107c08483610f32565b6107ca838361106b565b82600160a060020a031684600160a060020a03167fddf252ad1be2c89b69c2b068fc378daa952ba7f163c4a11628f55a4df523b3ef846040518082815260200191505060405180910390a350505050565b60006108268361091c565b821061083157600080fd5b600160a060020a038316600090815260066020526040902080548390811061085557fe5b9060005260206000200154905092915050565b806108733382610e25565b151561087e57600080fd5b61089a8484846020604051908101604052806000815250610af7565b50505050565b600090815260208190526040902054600160a060020a0316151590565b60006108c7610766565b82106108d257600080fd5b60088054839081106108e057fe5b90600052602060002001549050919050565b600081815260208190526040812054600160a060020a031680151561091657600080fd5b92915050565b6000600160a060020a038216151561093357600080fd5b50600160a060020a031660009081526002602052604090205490565b61095761143b565b600b54600090600160a060020a0316331461097157600080fd5b604080518082019091528481526020808201859052600c805460018181018084556000939093528451805195975090949293879360029093027fdf6966c971051c3d54ec59162606531493a51404a002842f56009d7e5cf4a8c701926109da9284920190611452565b5060208281015180516109f39260018501920190611452565b50505003905061089a33826110b4565b600b54600160a060020a031681565b60058054604080516020601f600260001961010060018816150201909516949094049384018190048102820181019092528281526060939092909183018282801561064e5780601f106106235761010080835404028352916020019161064e565b600160a060020a038216331415610a8957600080fd5b336000818152600360209081526040808320600160a060020a03871680855290835292819020805460ff1916861515908117909155815190815290519293927f17307eab39ab6107e8899845ad3d59bd9653f200f220920489ca2b5937696c31929181900390910190a35050565b81610b023382610e25565b1515610b0d57600080fd5b610b1885858561076c565b610b2485858585611103565b1515610b2f57600080fd5b5050505050565b6060610b41826108a0565b1515610b4c57600080fd5b6000828152600a602090815260409182902080548351601f600260001961010060018616150201909316929092049182018490048402810184019094528084529091830182828015610bdf5780601f10610bb457610100808354040283529160200191610bdf565b820191906000526020600020905b815481529060010190602001808311610bc257829003601f168201915b50505050509050919050565b606080610bf661143b565b600c805485908110610c0457fe5b60009182526020918290206040805160029384029092018054600181161561010002600019011693909304601f81018590049094028201606090810182529082018481529193849291849190840182828015610ca15780601f10610c7657610100808354040283529160200191610ca1565b820191906000526020600020905b815481529060010190602001808311610c8457829003601f168201915b50505050508152602001600182018054600181600116156101000203166002900480601f016020809104026020016040519081016040528092919081815260200182805460018160011615610100020316600290048015610d435780601f10610d1857610100808354040283529160200191610d43565b820191906000526020600020905b815481529060010190602001808311610d2657829003601f168201915b5050505050815250509050806000015192508060200151915050915091565b600160a060020a03918216600090815260036020908152604080832093909416825291909152205460ff1690565b600b54600160a060020a03163314610da757600080fd5b600160a060020a0381161515610dbc57600080fd5b600b54604051600160a060020a038084169216907f8be0079c531659141344cd1fd0a4f28419497f9722a3daafe3b4186f6b6457e090600090a3600b805473ffffffffffffffffffffffffffffffffffffffff1916600160a060020a0392909216919091179055565b600080610e31836108f2565b905080600160a060020a031684600160a060020a03161480610e6c575083600160a060020a0316610e6184610659565b600160a060020a0316145b80610e7c5750610e7c8185610d62565b949350505050565b81600160a060020a0316610e97826108f2565b600160a060020a031614610eaa57600080fd5b600081815260016020526040902054600160a060020a031615610f2e576000818152600160209081526040808320805473ffffffffffffffffffffffffffffffffffffffff1916905580518481529051600160a060020a038616927f8c5be1e5ebec7d5bd14f71427d1e84f3dd0314c0f7b2291e5b200ac8c7c3b925928290030190a35b5050565b6000806000610f41858561128c565b600084815260076020908152604080832054600160a060020a0389168452600690925290912054909350610f7c90600163ffffffff61132116565b600160a060020a038616600090815260066020526040902080549193509083908110610fa457fe5b90600052602060002001549050806006600087600160a060020a0316600160a060020a0316815260200190815260200160002084815481101515610fe457fe5b6000918252602080832090910192909255600160a060020a038716815260069091526040812080548490811061101657fe5b6000918252602080832090910192909255600160a060020a038716815260069091526040902080549061104d9060001983016114d0565b50600093845260076020526040808520859055908452909220555050565b60006110778383611333565b50600160a060020a039091166000908152600660209081526040808320805460018101825590845282842081018590559383526007909152902055565b6110be82826113c2565b600880546000838152600960205260408120829055600182018355919091527ff3f7a9fe364faab93b216da50a3214154f22a0a2b415b23a84c8169e8b636ee3015550565b60008061111885600160a060020a0316611426565b15156111275760019150611283565b84600160a060020a031663f0b9e5ba8786866040518463ffffffff167c01000000000000000000000000000000000000000000000000000000000281526004018084600160a060020a0316600160a060020a0316815260200183815260200180602001828103825283818151815260200191508051906020019080838360005b838110156111bf5781810151838201526020016111a7565b50505050905090810190601f1680156111ec5780820380516001836020036101000a031916815260200191505b50945050505050602060405180830381600087803b15801561120d57600080fd5b505af1158015611221573d6000803e3d6000fd5b505050506040513d602081101561123757600080fd5b50517fffffffff0000000000000000000000000000000000000000000000000000000081167ff0b9e5ba0000000000000000000000000000000000000000000000000000000014925090505b50949350505050565b81600160a060020a031661129f826108f2565b600160a060020a0316146112b257600080fd5b600160a060020a0382166000908152600260205260409020546112dc90600163ffffffff61132116565b600160a060020a039092166000908152600260209081526040808320949094559181529081905220805473ffffffffffffffffffffffffffffffffffffffff19169055565b60008282111561132d57fe5b50900390565b600081815260208190526040902054600160a060020a03161561135557600080fd5b600081815260208181526040808320805473ffffffffffffffffffffffffffffffffffffffff1916600160a060020a038716908117909155835260029091529020546113a290600161142e565b600160a060020a0390921660009081526002602052604090209190915550565b600160a060020a03821615156113d757600080fd5b6113e1828261106b565b604080518281529051600160a060020a038416916000917fddf252ad1be2c89b69c2b068fc378daa952ba7f163c4a11628f55a4df523b3ef9181900360200190a35050565b6000903b1190565b8181018281101561091657fe5b604080518082019091526060808252602082015290565b828054600181600116156101000203166002900490600052602060002090601f016020900481019282601f1061149357805160ff19168380011785556114c0565b828001600101855582156114c0579182015b828111156114c05782518255916020019190600101906114a5565b506114cc9291506114f0565b5090565b815481835581811115610761576000838152602090206107619181019083015b61065691905b808211156114cc57600081556001016114f65600a165627a7a72305820f21d0afa4b196e80a31271175d84d03e6b7a5dacef18bc6b194495942fad9a500029",
  "source": "pragma solidity ^0.4.21;\n\nimport \"../../../node_modules/openzeppelin-solidity/contracts/token/ERC721/ERC721Token.sol\";\nimport \"../../../node_modules/openzeppelin-solidity/contracts/ownership/Ownable.sol\";\n\ncontract GradientToken is ERC721Token(\"GradientToken\", \"GRAD\"), Ownable {\n    // string private constant _name = \"GradientToken\";\n    // string private constant _symbol = \"GRAD\";\n\n    struct Gradient {\n        string outer;\n        string inner;\n    }\n\n    Gradient[] gradients;\n\n    function mint(string _outer, string _inner) public onlyOwner{\n        Gradient memory _gradient = Gradient({ outer: _outer, inner: _inner });\n        uint256 _gradientId = gradients.push(_gradient) - 1;\n\n        _mint(msg.sender, _gradientId);\n    }\n\n    function getGradient( uint256 _gradientId ) public view returns(string outer, string inner){\n        Gradient memory _grad = gradients[_gradientId];\n\n        outer = _grad.outer;\n        inner = _grad.inner;\n    }\n}\n",
  "sourcePath": "/Users/jheinnic/Git/throwdown-proxy/webui/projects/throwdown/contracts/GradientToken.sol",
  "compiler": {
    "name": "solc",
    "version": "0.4.24+commit.e67f0147.Emscripten.clang"
  },
  "schemaVersion": "2.0.0",
  "updatedAt": "2018-05-29T21:41:19.816Z"
}